:030000000200F308
:0C00F300787FE4F6D8FD75812002000E35
:10000E00C20075890175B208758CFF758A9CD2AFD6
:10001E00D2A9D28CC2B220B0231200E620B01B129D
:10002E0000C91200AC120072120072120072E4F5D6
:10003E0008E508C3942850E480F7D20020B1D71207
:10004E0000E620B11B1200C91200AC1200721200A1
:10005E007212008FE4F508E508C3942850E480F787
:04006E00D20080B28A
:03000B000200FFF1
:0B00FF00758CFF758A9C0508C28D32CD
:10007200E4F508E508C3940A5004D2B280F5E4F529
:0D00820008E508C394055004C2B280F522C1
:10008F00E4F508E508C394145004D2B280F5E4F502
:0D009F0008E508C394055004C2B280F522A4
:1000AC00E4F508E508C394285004D2B280F5E4F5D1
:0D00BC0008E508C394285004C2B280F52264
:1000C900E4F508E508C3940A5004D2B280F5E4F5D2
:0D00D90008E508C394055004C2B280F5226A
:0C00E600E4FFE4FE0EBE6EFC0FBF0AF645
:0100F20022EB
:00000001FF
