:03000000020046B5
:0C004600787FE4F6D8FD75812002008D63
:100243007DA57C06ED1D70011C144C70F7EF1F702B
:06025300011E144E70EACA
:010259002282
:1001BC0041544431303038363B0D0A004154480D1F
:1001CC000A004154410D0A0041542B435245473F0C
:0101DC000022
:10002600030BFF01BC0311FF01C8030EFF01CE0144
:0B0036000900010A000114000108008D
:1001F8001202A512025A12000ED2AF1200D2AB0B95
:09020800AA0CA90D12019780FE59
:0300230002029A3C
:0B029A00309802C298309902C29932DD
:0300430002013186
:10013100C0E0C083C082C0D053AFFEE59A30E01D5D
:10014100539AFE7400250AF582E43400F583E5999B
:10015100F0050AE50AD3943C4003750A00E59A309C
:10016100E103539AFD43AF01D0D0D082D083D0E0D8
:01017100325B
:03000B000201DD12
:0401DD00C0E0C0D0EE
:1001E100C28C0508E508C394324005750800B2B217
:0201F100D28CAE
:0501F300D0D0D0E03285
:0B02A50075B12075B21CC2B3C2B222BA
:10000E00538E7F5389F0E4F58A758C70C28DD28C35
:03001E00D2A92242
:0F027E00E4FF7E3C900000E4F0A3DEFCE4F50A10
:01028D00224E
:1000D200E4F51512027EE515705412027E7BFF7A5A
:1000E2000179D41201977F0D12026D7F0A12026DFF
:1000F2007F887E13120243E4F516E516C3943C5042
:10010200D574002516F582E43400F583E0B43A1A7A
:1001120074042516F582E43400F583E0FF6431604F
:0E01220004EFB4350575150180AC051680CCD0
:0101300022AC
:10021100759850438E40538EFE53890F758BD07560
:090221008DFFC2ABD28ED2AC22DB
:10025A00759A50438E0475D7D075D6FF438E1043D6
:03026A00AF0122BF
:0C028E00C2AC8F993099FDC299D2AC220D
:100172008B1A8A1B891CAB1AAA1BA91C12022A60A1
:1001820013051CE51C7002051B14F912022AFF124A
:05019200028E80E22254
:10026D0053AFFE8F9BE59A30E1FB539AFD75AF01BD
:01027D00225E
:100197008B178A188919AB17AA18A91912022A608E
:1001A700130519E5197002051814F912022AFF122E
:0501B700026D80E22250
:100052000201F8E493A3F8E493A34003F68001F2CB
:1000620008DFF48029E493A3F85407240CC8C333AF
:10007200C4540F4420C8834004F456800146F6DF7E
:10008200E4800B0102040810204080900026E47EE8
:10009200019360BCA3FF543F30E509541FFEE49373
:1000A200A360010ECF54C025E060A840B8E493A33A
:1000B200FAE493A3F8E493A3C8C582C8CAC583CA65
:1000C200F0A3C8C582C8CAC583CADFE9DEE780BE1D
:0100410000BE
:10022A00BB010689828A83E0225002E722BBFE02D2
:09023A00E32289828A83E4932205
:00000001FF
