:0D046F000518344310100101200001210088
:07000300C294D295C29222C3
:1001CF008F20A2079293D292A290920FC292A20670
:1001DF009293D292A290920EC292A2059293D29231
:1001EF00A290920DC292A2049293D292A290920CDC
:1001FF00C292A2039293D292A290920BC292A202A7
:10020F009293D292A290920AC292A2019293D29208
:10021F00A2909209C292A2009293D292A2909208B7
:05022F00C292AF212284
:02042700AE0520
:10042900C2951201CFAD07AF061201CFD295AF0524
:0104390022A0
:0C047D00C2951201CFE4FF1201CFD2950E
:010489002250
:06033D008B148A158916DD
:10034300C2951201CFAE07E4FDEDC395175016E435
:10035300FF1201CFAB14AA15A9168D82F583EF12F4
:0903630002E90D80E4D295AF0619
:01036C00226E
:06030B008B148A1589160F
:10031100C2951201CFAE07E4FDEDC395175018AB9E
:10032100140516E516AA157002051514F91202D066
:0B033100FF1201CF0D80E2D295AF0655
:01033C00229E
:10043A00C2947D0D7F20120427D2947F147E00126D
:03044A0004132276
:1002900012043AC2947B007A0079187517057F2AF8
:1002A00012030B7D017F211204277D017F2212049E
:1002B000277D287F251204277D207F311204277D8A
:1002C000267F261204277D0F7F20120427D2942236
:1002340012043AC2947B007A0079187517057F304E
:1002440012030B7B007A0079187517057F2A1203B5
:100254000B7B007A0079447517207FA012030B7D75
:10026400017F211204277D017F221204277D1A7F3A
:10027400241204277D287F251204277D267F261239
:0C02840004277D0E7F20120427D2942254
:1003EB00C295BF01077FE11201CF80057FE21201A9
:0403FB00CFD29522A6
:1003FF00E4FF1203EB7F011203EB7DFF7F27120453
:04040F0027D291223D
:10036D005245414459210D0A00C4E3B0B4CFC2C176
:10037D00CBD7F3B1DFB0B4BCFC0D0A00C4E3B0B40D
:0F038D00CFC2C1CBD3D2B1DFB0B4BCFC0D0A00DC
:10000E00E4F508F509F50AF50BF50CF50DF50EF509
:10001E000FF510F511F51212044D120460120003C3
:10002E00C296120460D296120460C296120460D276
:10003E0096120460D2991204607BFF7A03796D12D6
:10004E0003C6120290D2B0D2B130B00320B158D252
:10005E00917DFF7F2712042720B006784476AA8070
:10006E000720B104784476551202342091FD7F07A3
:10007E0012047D8F227DFF7F27120427E52230E5B3
:10008E001B20B00CC296120460D296120460800F30
:10009E00C2B5120460D2B512046080031203FF755C
:1000AE00110075120180A2E51245116014E4F511DC
:1000BE00F512120290D2913091FD7F907E011204C2
:1000CE0013D29130910201537F0712047D8F227D4E
:1000DE00FF7F27120427E52230E6487B007A00795D
:1000EE00247517207F6112033D7824E6B4AA157B90
:1000FE00FF7A0379761203C6C296120460D2961264
:10010E00046080197824E6B455137BFF7A0379894D
:10011E001203C6C2B5120460D2B5120460E478248C
:10012E00F601531203FF120290D291309102015345
:04013E0080F90153F0
:01014200229A
:10044D00438E805389F0758A3F758CFFC28CC2A98B
:03045D00D2AF22F9
:10039C00C2B1D28CD2A9D2182018FDE4FEEF139270
:1003AC00B1EFC313FFD2182018FD0EBE08EFD2B167
:0903BC00D2182018FDC28CC2A960
:0103C5002215
:1003C6008B138A148915AB13AA14A9151202D060CF
:1003D600130515E5157002051414F91202D0FF1263
:0503E600039C80E222EF
:03000B0002048A62
:07048A00C2AFC218D2AF326D
:0E04600000007F097E687D8BDDFEDEFCDFFA8A
:01046E00226B
:10041300E4FDEF4E600DE4FD0DBD01FCEF1F700127
:030423001E80EF49
:0104260022B3
:03000000020143B7
:0C014300787FE4F6D8FD75816302018A24
:1002D000BB010689828A83E0225002E722BBFE022C
:0902E000E32289828A83E493225F
:1002E900F8BB010DE58229F582E5833AF583E8F04B
:1002F900225006E92582C8F622BBFE05E92582C8F7
:02030900F222DE
:10014F0002000EE493A3F8E493A34003F68001F2B8
:10015F0008DFF48029E493A3F85407240CC8C333B1
:10016F00C4540F4420C8834004F456800146F6DF80
:10017F00E4800B010204081020408090046FE47E9D
:10018F00019360BCA3FF543F30E509541FFEE49375
:10019F00A360010ECF54C025E060A840B8E493A33C
:1001AF00FAE493A3F8E493A3C8C582C8CAC583CA67
:1001BF00F0A3C8C582C8CAC583CADFE9DEE780BE1F
:01047C00007F
:00000001FF
