:02030A00C10030
:10027F00C2A01201ADD2A0C296D290D2977FE87ED3
:01028F00036B
:10029000E4FDFCC3ED9FEC9E5008000DBD00010C79
:0202A00080F1EB
:0102A2002239
:1001EE001202027FE71202027FE71202027FE7127B
:0401FE0002027FE793
:02020200AB0748
:100204007A08C292AF021AEF601B7F0A7E001202C4
:1002140090EB339294EB25E0FB120290D2921202FF
:0702240090C29280DFC2923C
:01022B0022B0
:10022C007B08E4FAC292AF031BEF601AEA25E0FAEE
:10023C00A291E4334202D2927F0A7E00120290C253
:0A024C009212029080E0C292AF020D
:010256002285
:1002BC00E4F912022C7E00EE2409F8A60712022C97
:0702CC008F0A12022C8F0BB8
:0102D3002208
:1001AD00D297D296C2937F221201EED2937F027E16
:1001BD0000120290C2937F201202027F01120202EE
:1001CD007F021202027F03120202D2937F057E008C
:1001DD00120290D2907FF40E120290C2903095FDD3
:0101ED0022EF
:10025700309524C290C2937F241202021202BCD2AC
:10026700932095FDD290E509B4010CE50AB4020785
:08027700E50BB40302D20022E2
:10016800D293C292D297C290C2967F027E001202A8
:1001780090C293E4FF1202027F6C1202027F0C12FB
:1001880002027F441202027F031202027F0312015D
:10019800EE7FDE120202D293D297D290C2967FE807
:0501A8007E030202903D
:10008F00120168C297D295D2A0C200C29012028C00
:10009F00C296D290D297120281120257300019C223
:1000AF0096D290D297C2A07F887E1312029012022E
:1000BF0090C200D2A012027F20A4DE7F1E7E00120B
:0D00CF00029020A4D412029012027F80CC77
:1000DC007F381202F67F381202F67F381202F67F52
:1000EC00081202F61202E77F011202F61202E77FF3
:1000FC00507EC31202DC7F141202F61202E77F0656
:10010C001202F61202E77F801202F61202E77F0C4F
:06011C001202F60202E7E8
:060122008B0E8A0F89100C
:10012800E4F511F512ED5438131313541FF512EDBD
:1001380054C7FF1202F61202E7E4F511E511D39550
:1001480012501CAB0E0510E510AA0F7002050F1413
:0F015800F91202A3FF1203001202E7051180DD66
:010167002275
:0A02F6008F80C2A11202D4C2A02220
:0A0300008F80D2A11202D4C2A02205
:0E02E700C2A1D2A2D2A0AF80C2A0EF20E7F247
:0102F50022E6
:0802D400C2A2D2A07F647E00EB
:0B02DC00EF1FAC0670011E4C70F622F4
:03000000020003F8
:0C000300787FE4F6D8FD75812002004AE9
:1002A300BB010689828A83E0225002E722BBFE0259
:0902B300E32289828A83E493228C
:10000F0002008FE493A3F8E493A34003F68001F278
:10001F0008DFF48029E493A3F85407240CC8C333F2
:10002F00C4540F4420C8834004F456800146F6DFC1
:10003F00E4800B010204081020408090030AE47E44
:10004F00019360BCA3FF543F30E509541FFEE493B6
:10005F00A360010ECF54C025E060A840B8E493A37D
:10006F00FAE493A3F8E493A3C8C582C8CAC583CAA8
:10007F00F0A3C8C582C8CAC583CADFE9DEE780BE60
:01030C0000F0
:00000001FF
