:080A7D0000CC00CC00CC00CC41
:1009BC000408293031320A0CC0CFA4B0999282F8C5
:0F09CC0080900B21004C0C440404CCCCCCCC58B4
:100A1800AE071FEE6013E4FCFDC3ED9450EC9400A8
:090A280050EE0DBD00010C80F040
:010A310022A2
:1009DC00E4FFE52025E0F520D2B230B0054320013C
:0D09EC0080035320FEC2B20FBF08E7AF200A
:0109F90022DB
:1009FA008F20E4FFE52030E704D2B18002C2B1D2F1
:0D0A0A00B2E52025E0F520C2B20FBF08E7DD
:010A170022BC
:100A5A00D2B4C2B2C2B3C2A3C2A2D2A0C297C29631
:010A6A002269
:100A3200C2B4E4FE74212EF8E6FF1209FA0EBE0BD0
:030A4200F3D2B438
:010A4500228E
:06088C008B178A18891980
:10089200C2B47F201209FAE4FEAB17AA18A9198E76
:1008A2008275830012096BFF1209FA0EBE04EAD2A6
:1008B200B47F01120A18C2B47F221209FAE4FEEED2
:1008C20025E0247DF582E4340AF583740193FF1256
:1008D20009FA0EBE04E9D2B4D2977F01120A18C2F5
:0108E200977E
:0108E30022F2
:090A6B00C297D2967F01020A181D
:090A7400C296D2977F01020A1814
:100A4600309706209603D38001C392B350037F01EB
:040A5600227F0022D9
:10093A007F01120A187F64120A18C297C2B47F0193
:10094A00120A187F241209FAE4FE1209DC74082E2E
:10095A00F8A6070EBE04F3D2B47F0A120A18D29779
:01096A00226A
:10099800120A74120A46EF60FA7F0A120A1812093C
:1009A8003AE508B42904C2A4D2B5E509B42904D2A9
:0409B800A4C2B522FE
:1008E400120A5A120A32C2A4C2B512099820A60DDD
:1008F400751601750829750930C2A4D2B520A50D55
:10090400751601750830750929D2A4C2B5E516B467
:100914000114120A6B7B007A00790812088CE4F542
:10092400167F64120A187F64120A18D2B5D2A47F03
:0609340064120A1880B4F1
:03000000020800F3
:0C080000787FE4F6D8FD75812B020847D4
:10096B00BB010CE58229F582E5833AF583E0225041
:10097B0006E92582F8E622BBFE06E92582F8E2228B
:0D098B00E58229F582E5833AF583E49322A5
:10080C000208E4E493A3F8E493A34003F68001F216
:10081C0008DFF48029E493A3F85407240CC8C333ED
:10082C00C4540F4420C8834004F456800146F6DFBC
:10083C00E4800B01020408102040809009BCE47E87
:10084C00019360BCA3FF543F30E509541FFEE493B1
:10085C00A360010ECF54C025E060A840B8E493A378
:10086C00FAE493A3F8E493A3C8C582C8CAC583CAA3
:10087C00F0A3C8C582C8CAC583CADFE9DEE780BE5B
:0109DB00001B
:00000001FF
