:040000000C9432002A
:0F005400CCCCCCCC004C0C442020CCCCCCCC5809
:14006400CFE5D4E0CDBFDEBFC051D0400AEA08830024EFE65E
:14007800F0E010E0EF38F10711F00192FBCF0083E4E5F0E01B
:14008C00A0E6B0E010E0E336F10721F0C89531960D92F9CFAD
:1400A0000E940D01FFCF0E94390109C04427552702C04F5FD2
:1400B4005F4F4035E0E05E07D0F3180101501040222091F7A9
:1400C800332081F70E943C01089580E58DB908950FB9779BBB
:1400DC00FECF0FB10895C49AC798C298C3989398C19A9498C2
:1400F000C09808950E943901C49801E010E0D3DF442709C018
:1401040084E690E0E42FFF27E80FF91F0081E2DF43954B3030
:14011800A8F3C49A0E943C0108950E943901C49801E010E055
:14012C00BCDF00E2D3DF442709C08FE690E0E42FFF27E80F47
:14014000F91F0081C9DF43954032A8F3C49A01E010E0A9DFCE
:14015400C49802E2BFDF442709C080E690E0E42FFF27E80F7F
:14016800F91F0081B5DF43954430A8F3C49A949A01E010E012
:14017C0094DF94980E943C0108959498C09A02E010E08BDF92
:140190000895C098949A0AE010E085DF0895F3DFC0DF08954F
:1401A400B29B02C001E001C0002708950E9439019498C4986E
:1401B80001E010E074DF04E28BDF44270AC0002787DF8FE688
:1401CC0090E0E42FFF27E80FF91F008343954032A0F3C49AA9
:1401E00002E010E060DF949A0E943C010895D1DFD9DF0023C5
:1401F400E9F3DCDF0AE010E054DF089522242BB888E18AB9E1
:1402080086E080BD83E389B920BC5B9A08950CB9089582EF56
:14021C0081BB83EB87BB959A979A55DF5CDF64DFE9DF04EF15
:1402300011E039DF14C0DBDF442755270CC08FE690E0FA0190
:14024400E80FF91F0081E5DF04E110E02ADF4F5F5F4F4032A6
:14025800E0E05E0780F3EBCF0895FA92EA92DA92CA92BA9287
:14026C00AA927A936A935A934A930895E1E049915991E0FD6F
:14028000089569917991E1FD0895A990B990E2FD0895C990F7
:0C029400D990E3FD0895E990F9900895D9
:00000001FF
