:1000460061745E736973733D302C616464726573A9
:10005600732C22736F636B7463703A2F2F6E697201
:10006600656E2E6F6963702E6E65743A3132333465
:1000760022004D47333233C4A3BFE947505253B22F
:10008600E2CAD4B3CCD0F20D0A004D47333233C4A2
:10009600A3BFE9D4DAD7A2B2E1CDF8C2E70D0A00D0
:1000A6004D47333233C4A3BFE9D7A2B2E1B3C9B9CE
:1000B600A60D0A004D47333233C4A3BFE9BFAACA0F
:1000C600BCC1ACBDD3B7FECEF1C6F70D0A00C1ACBC
:1000D600BDD3B3C9B9A60D0A0041542B43524547B7
:1000E6003F00D7A2B2E1D6D02E2E2E2E2E004F4B99
:1000F60000415445300061745E736963733D302C72
:10010600636F6E547970652C47505253300061749A
:100116005E736963733D302C7061737377642C670B
:100126007072730061745E736963733D302C75730E
:1001360065722C636D0061745E736963733D302C68
:1001460061706E2C636D6E65740061745E736973A5
:10015600733D302C737276547970652C736F636BB4
:1001660065740061745E736973733D302C636F6EE2
:1001760049642C300041545E5349534F3D30005E74
:10018600534953520041545E534953523D302C312A
:10019600353030006F6E6C6564006F66666C656442
:1001A60000CAD5B5BDD0C2D0C5CFA2A3BA0D0A002C
:0C01B60041545E534953573D302C320039
:10063A000326FF00460122000125000129000223AA
:05064A00000001210089
:1004E40012069E12000E120650120624D2AF7BFF93
:1004F4007A0079781205A37BFF7A0079901205A31C
:1005040012042A7BFF7A0079A61205A37BFF7A00E6
:1005140079BA1205A31206A912048A7BFF7A00791C
:10052400D41205A312024E3001FA120576C20180DC
:01053400F3D3
:030023000206933F
:0B069300309802C298309902C29932E0
:030043000205357E
:10053500C0E0C083C082C0D053AFFEE59A30E01D55
:10054500539AFE743C2525F582E43400F583E59B3A
:10055500F00525E525D394C84003752500E59A30B7
:10056500E103539AFD43AF01D0D0D082D083D0E0D0
:010575003253
:03000B000203C22B
:0D03C200C0E0C0F0C0D075D000C000C00782
:1003CF00C28C758A00758CB80521E521C394324023
:1003DF0005752100B2B20524E52470020523D394DC
:1003EF00F4E52394014008752300752400D20130F1
:1003FF0000020522E52975F032A4FFD3E5229FE51F
:10040F00F06480F87480984005C200752200D28C89
:0B041F00D007D000D0D0D0F0D0E032E9
:0B069E0053B1C343B23CC2B3C2B2224E
:10062400538E7F5389F0438901E4F58A758CB8C2EF
:060634008DD28CD2A92238
:0F067700E4FF7EC890003CE4F0A3DEFCE4F52530
:010686002251
:10042A00E4F508120677E50870551206777BFF7A1D
:10043A000079DF1205C87F0D1206667F0A1206666A
:10044A007F887E1312060DE4FF743C2FF582E43494
:10045A0000F583E0B43A1974402FF582E43400F5CC
:10046A0083E0FE64316004EEB4350575080180044A
:0F047A000FBFC8D57BFF7A0079E81205A380A7D2
:010489002250
:1005ED008B108A1189128B168A1789187B017A0054
:1005FD00793C1202D2E94A4B60037F01227F00222F
:040354007BFF7D05A9
:080358008D0B8B088A09890A4C
:100360008B0D8A0E890F120677E4F50CE50C704FA1
:100370007BFF7A0079F41205EDEF703C2000ED85EB
:100380000D08850E09850F0AAB08AA09A90A1200F3
:1003900026FF60101206667401250AF50AE4350985
:1003A000F50980E47F0D1206667F0A120666E4F501
:1003B00022850B29D20080B4750C01C20080AD02E9
:0203C0000677BE
:0B06A9007BFF7A0079F77D0302035805
:10048A007A0079FC1203547A0179141203547BFF1F
:10049A007A01792A7D051203587BFF7A01793C7D1E
:1004AA00051203587BFF7A0179507D051203587BA8
:1004BA00FF7A0179697D05120358AB26AA27A92874
:1004CA007D051203587BFF7A01797B7D3C12035824
:0A04DA007F647E0012060D02067713
:10024E007516FF7517017518857B017A00793C12BA
:10025E0002D2E94A4B606CE4F523F524C2017BFF20
:10026E007A01798B1205C87F0D1206667F0A120677
:10027E00667F647E0012060D7516FF7517017518E0
:10028E009A7B017A00793C1202D2E94A4B6004C291
:10029E00B380197516FF7517017518A07B017A00CA
:1002AE00793C1202D2E94A4B6002D2B37BFF7A014B
:1002BE0079A71205A37B017A00793C1205A31206D9
:0402CE0077D20122C0
:100576007BFF7A0179B61205C87F0D1206667F0ADF
:100586001206667F647E0012060D7BFF7A0079F400
:0D0596001205C87F647E0012060D02067774
:10060D007D527C03ED1D70011C144C70F7EF1F70B3
:06061D00011E144E70EAFC
:0106230022B4
:10000E0053877F759850438E04759CFD438E014334
:05001E008E10D2AC229F
:10065000538EF7759A50438E04759CFD438E01436B
:060660008E1043AF0122E1
:0C068700C2AC8F993099FDC299D2AC2210
:1005A3008B098A0A890BAB09AA0AA90B12002660D8
:1005B30013050BE50B7002050A14F9120026FF124E
:0505C300068780E22222
:1006660053AFFE8F9BE59A30E1FB539AFD75AF01C0
:010676002261
:1005C8008B098A0A890BAB09AA0AA90B12002660B3
:1005D80013050BE50B7002050A14F9120026FF1229
:0505E800066680E2221E
:030000000201C238
:0C01C200787FE4F6D8FD7581290202095F
:10002600BB010689828A83E0225002E722BBFE02D8
:09003600E32289828A83E493220B
:1002D2008B138A148915AB16AA17A9181200266067
:1002E20063AB13AA14A915120026605F851619853F
:1002F200171A85181B8B1C8A1D891EAB19AA1AA9ED
:100302001B120026FF6023AB1CAA1DA91E12002689
:100312006F701704251BF51BE4351AF51A740125B5
:100322001EF51EE4351DF51D80D1AB19AA1AA91BB5
:100332001200267002800D74012515F515E435149E
:10034200F514809DAB13AA14A915227B007A0079BB
:02035200002287
:1001CE000204E4E493A3F8E493A34003F68001F25F
:1001DE0008DFF48029E493A3F85407240CC8C33332
:1001EE00C4540F4420C8834004F456800146F6DF01
:1001FE00E4800B010204081020408090063AE47E51
:10020E00019360BCA3FF543F30E509541FFEE493F5
:10021E00A360010ECF54C025E060A840B8E493A3BC
:10022E00FAE493A3F8E493A3C8C582C8CAC583CAE7
:10023E00F0A3C8C582C8CAC583CADFE9DEE780BE9F
:01064F0000AA
:00000001FF
