:1000460041542B43495053544152543D225443503A
:10005600222C223138332E33332E3233302E36359E
:10006600222C363030300047505253C4A3BFE947E4
:10007600505253B2E2CAD4B3CCD0F20D0A00475064
:100086005253C4A3BFE9D4DAD7A2B2E1CDF8C2E78E
:100096000D0A0047505253C4A3BFE9D7A2B2E1B339
:1000A600C9B9A60D0A0047505253C4A3BFE9BFAA57
:1000B600CABCC1ACBDD3B7FECEF1C6F70D0A00C1AE
:1000C600ACBDD3B3C9B9A60D0A0041542B43524562
:1000D600473F00D7A2B2E1D6D02E2E2E2E2E0041BB
:1000E600544530004F4B0041542B434950434C4F2D
:1000F60053453D310041542B434950534855540014
:1001060053485554204F4B0041542B4347434C41D1
:1001160053533D2242220041542B434744434F4E02
:10012600543D312C224950222C22434D4E45542217
:100136000041542B43474154543D310041542B4315
:100146004950435347503D312C22434D4E4554228E
:100156000041542B434950484541443D31002B4909
:100166005044006F6E6C6564006F66666C65640073
:10017600CAD5B5BDD0C2D0C5CFA2A3BA0D0A00411B
:10018600542B43495053454E44003E004F4B1A00F2
:090196000053454E44204F4B007C
:10063400030DFF0046010900010C00011000020A2D
:050644000000010800A8
:1004F7001206C012066012064A120675D2AF7BFFBB
:100507007A00796D1205B37BFF7A0079841205B3FF
:100517001204977BFF7A0079991205B37BFF7A0063
:1005270079AC1205B312000E12019F7BFF7A007996
:10053700C51205B31203533001FA120589C20180AF
:01054700F3C0
:030023000206B51D
:0B06B500309802C298309902C29932BE
:030043000205486B
:10054800C0E0C083C082C0D053AFFEE59A30E01D42
:10055800539AFE743C250CF582E43400F583E59B40
:10056800F0050CE50CD394C84003750C00E59A30EF
:10057800E103539AFD43AF01D0D0D082D083D0E0BD
:010588003240
:03000B00020435B7
:0D043500C0E0C0F0C0D075D000C000C0070E
:10044200C28C0508E508C394324005750800B2A1C4
:10045200050BE50B7002050AD394F4E50A940140FA
:1004620008750A00750B00D2013000020509E5107B
:1004720075F032A4FFD3E5099FE5F06480F874803B
:0A048200984005C200750900D28CF5
:0B048C00D007D000D0D0D0F0D0E0327C
:0B06C00053B1C343B23CC2B3C2A1223D
:10067500538E7F5389F0E4F58A758C70C28DD28CC8
:03068500D2A922D5
:0F069900E4FF7EC890003CE4F0A3DEFCE4F50C27
:0106A800222F
:10049700E4F521120699E52170551206997BFF7A3A
:1004A7000079D01205D87F0D1206887F0A120688B8
:1004B7007F887E1312061DE4FF743C2FF582E43417
:1004C70000F583E0B43A1974402FF582E43400F55F
:1004D70083E0FE64316004EEB435057521018004C4
:0F04E7000FBFC8D57BFF7A0079D91205B380A764
:0104F60022E3
:1005FD008B2C8A2D892E8B328A3389347B017A009C
:10060D00793C1202D1E94A4B60037F01227F00221F
:0603CD008B218A22892326
:1003D3008B298A2A892B120699E4F528E528704F80
:1003E300AB24AA25A9261205FDEF703C2000ED855C
:1003F3002921852A22852B23AB21AA22A923120096
:1004030026FF601012068874012523F523E43522A4
:10041300F52280E47F0D1206887F0A120688E4F530
:1004230009852710D20080B4752801C20080AD026F
:02043300069928
:10000E007524FF7525007526EA7527037BFF7A0098
:05001E0079E50203CDAD
:10019F007BFF7A0079ED1205D87524FF752501755F
:1001AF0026067527027BFF7A0079FB1203CD752493
:1001BF00FF7525007526EA7527027BFF7A01790EF8
:1001CF001203CD7524FF7525007526EA7527027B6E
:1001DF00FF7A01791D1203CD7524FF752500752651
:1001EF00EA7527027BFF7A0179371203CD7524FF59
:1001FF007525007526EA7527027BFF7A0179421271
:10020F0003CD7524FF7525007526EA7527027BFF40
:10021F007A0179571203CD7524FF7525007526EAEB
:10022F00752705AB0DAA0EA90F1203CD7F647E00B3
:06023F0012061D020699E3
:100353007532FF7533017534647B017A00793C1281
:1003630002D1E94A4B6062E4F50AF50BC2017F64EE
:10037300FE12061D7532FF7533017534697B017AF0
:1003830000793C1202D1E94A4B6004C2B38019756B
:1003930032FF75330175346F7B017A00793C1202A9
:1003A300D1E94A4B6002D2B37BFF7A017976120519
:1003B300B37B017A00793C1205B37F0D1206A97F46
:0A03C3000A1206A9120699D20122BF
:100589007524FF7525017526907527027BFF7A0171
:1005990079851203CD7524FF752501752697752771
:0A05A900087BFF7A0179920203CD6E
:10061D007D527C03ED1D70011C144C70F7EF1F70A3
:06062D00011E144E70EAEC
:0106330022A4
:1006600053877F759850438E04759CFD438E0143DC
:050670008E10D2AC2247
:10064A00538EF7759A50438E04759CFD438E014371
:06065A008E1043AF0122E7
:0C06A900C2AC8F993099FDC299D2AC22EE
:1005B3008B228A238924AB22AA23A9241200266032
:1005C300130524E5247002052314F9120026FF12F3
:0505D30006A980E222F0
:1006880053AFFE8F9BE59A30E1FB539AFD75AF019E
:01069800223F
:1005D8008B228A238924AB22AA23A924120026600D
:1005E800130524E5247002052314F9120026FF12CE
:0505F800068880E222EC
:03000000020245B4
:0C024500787FE4F6D8FD75813A02028C47
:10002600BB010689828A83E0225002E722BBFE02D8
:09003600E32289828A83E493220B
:1002D1008B2F8A308931AB32AA33A93412002660C0
:1002E10063AB2FAA30A931120026605F85323585B4
:1002F10033368534378B388A39893AAB35AA36A9F2
:1003010037120026FF6023AB38AA39A93A1200261A
:100311006F7017042537F537E43536F53674012546
:100321003AF53AE43539F53980D1AB35AA36A937F2
:100331001200267002800D74012531F531E435304B
:10034100F530809DAB2FAA30A931227B007A00794C
:02035100002288
:100251000204F7E493A3F8E493A34003F68001F2C8
:1002610008DFF48029E493A3F85407240CC8C333AE
:10027100C4540F4420C8834004F456800146F6DF7D
:10028100E4800B0102040810204080900634E47ED3
:10029100019360BCA3FF543F30E509541FFEE49372
:1002A100A360010ECF54C025E060A840B8E493A339
:1002B100FAE493A3F8E493A3C8C582C8CAC583CA64
:1002C100F0A3C8C582C8CAC583CADFE9DEE780BE1C
:0106490000B0
:00000001FF
