:1003F9007DA57C06ED1D70011C144C70F7EF1F7074
:06040900011E144E70EA12
:01040F0022CA
:1000D20030383931363833313038373036353035DB
:1000E20046303131303030443931363833313937B6
:1000F2003938353838394639303030384141304373
:100102003644344238424435354446323745434614
:1001120035423843363231300041544530004F4B7E
:100122000041542B434D47463D300041542B435030
:100132004D533D22534D222C22534D222C22534DFE
:10014200220041542B434D47533D3237003E00417C
:08015200542B435245473F00C6
:10044F000309FF00D2010C00010D00010E0001088D
:01045F00009C
:1004100012049912042612043CD2AF1202441203B1
:060420002D1203B680FE60
:0300230002048E46
:0B048E00309802C298309902C29932E7
:030043000202ECCA
:1002EC00C0E0C083C082C0D053AFFEE59A30E01DA1
:1002FC00539AFE7400250DF582E43400F583E59BDA
:10030C00F0050DE50DD394C84003750D00E59A304A
:10031C00E103539AFD43AF01D0D0D082D083D0E01B
:01032C00329E
:03000B000202A34B
:0D02A300C0E0C0F0C0D075D000C000C007A2
:1002B000C28C0508E508C394324005750800B2B247
:1002C000300002050CE50E75F032A4FFD3E50C9F5B
:1002D000E5F06480F87480984005C200750C00D287
:0102E0008C91
:0B02E100D007D000D0D0D0F0D0E03229
:0904990053B1C343B23CC2B222CC
:10043C00538E7F5389F0E4F58A758C70C28DD28C03
:03044C00D2A92210
:0F047200E4FF7EC8900000E4F0A3DEFCE4F50D8B
:010481002258
:1003D9008B2C8A2D892E8B328A3389347B017A00C2
:1003E900790012015AE94A4B60037F01227F0022FA
:0601DC008B218A22892319
:1001E2008B298A2A892B120472E4F528E528704F9C
:1001F200AB24AA25A9261203D9EF703C2000ED8575
:100202002921852A22852B23AB21AA22A923120088
:1002120026FF601012046174012523F523E43522C0
:10022200F52280E47F0D1204617F0A120461E4F575
:100232000C85270ED20080B4752801C20080AD0261
:02024200047244
:10032D007524FF7525017526207527037BFF7A013E
:10033D00791B1201DC7524FF7525017526207527A3
:10034D00037BFF7A0179231201DC7524FF752501EA
:0F035D007526207527037BFF7A01792D0201DCBD
:1003B6007524FF75250175264F7527037BFF7A0186
:1003C60079441201DCAB09AA0AA90B1203917F1A20
:0303D600020461BD
:10024400E4F521120472E52170541204727BFF7AE2
:100254000179511203917F0D1204617F0A12046126
:100264007F887E131203F9E4F522E522C394C85073
:10027400D574002522F582E43400F583E0B43A1AFB
:1002840074042522F582E43400F583E0FF643160D0
:0E02940004EFB4350575210180AC052280CC45
:0102A2002239
:10000E0053877F759850438E04759CFD438E014334
:05001E008E10D2AC229F
:10042600538EF7759A50438E04759CFD438E014397
:060436008E1043AF01220D
:0C048200C2AC8F993099FDC299D2AC2217
:10036C008B0F8A108911AB0FAA10A91112002660ED
:10037C00130511E5117002051014F9120026FF1275
:05038C00048280E22262
:1004610053AFFE8F9BE59A30E1FB539AFD75AF01C7
:010471002268
:100391008B238A248925AB23AA24A9251200266050
:1003A100130525E5257002052414F9120026FF1214
:0503B100046180E2225E
:03000000020046B5
:0C004600787FE4F6D8FD75813A02008D49
:10002600BB010689828A83E0225002E722BBFE02D8
:09003600E32289828A83E493220B
:10015A008B2F8A308931AB32AA33A9341200266038
:10016A0063AB2FAA30A931120026605F853235852C
:10017A0033368534378B388A39893AAB35AA36A96A
:10018A0037120026FF6023AB38AA39A93A12002693
:10019A006F7017042537F537E43536F536740125BF
:1001AA003AF53AE43539F53980D1AB35AA36A9376B
:1001BA001200267002800D74012531F531E43530C4
:1001CA00F530809DAB2FAA30A931227B007A0079C5
:0201DA00002201
:10005200020410E493A3F8E493A34003F68001F2B0
:1000620008DFF48029E493A3F85407240CC8C333AF
:10007200C4540F4420C8834004F456800146F6DF7E
:10008200E4800B010204081020408090044FE47EBB
:10009200019360BCA3FF543F30E509541FFEE49373
:1000A200A360010ECF54C025E060A840B8E493A33A
:1000B200FAE493A3F8E493A3C8C582C8CAC583CA65
:1000C200F0A3C8C582C8CAC583CADFE9DEE780BE1D
:01046000009B
:00000001FF
