:1000460047505253C4A3BFE9D3EFD2F4CCA8B3CCE4
:10005600D0F20D0A0047505253C4A3BFE9D4DAD7F1
:10006600A2B2E1CDF8C2E70D0A0047505253C4A32D
:10007600BFE9D7A2B2E1B3C9B9A60D0A00475052EB
:1000860053C4A3BFE9545453A3AC44544D46C9E8E2
:10009600D6C30D0A00C9E8D6C3B3C9B9A60D0A006E
:1000A600B3F5CABCBBAFCDEAB3C90D0A004F4B00CE
:1000B600415445300041542B43545453504152410E
:1000C6004D3D3130302C302C35302C35302C310034
:1000D60041542B444445543D310052494E4700415A
:1000E600544100D0C2C0B4B5E70D0A0041542B43B9
:1000F6005454533D322C22BBB6D3ADCAB9D3C3C474
:10010600E0C8CBB5E7D7D3D3EFD2F4B2E2CAD4B3C3
:10011600CCD0F222002B44544D463A00D3D0B0B492
:10012600BCFCB0B4CFC20D0A00310041542B43547D
:1001360054533D322C22B4F2BFAA4C45442200B49B
:10014600F2BFAA4C45440D0A00320041542B4354D9
:1001560054533D322C22B9D8B1D54C45442200B96E
:10016600D8B1D54C45440D0A004E4F20434152525A
:1001760049455200B9D2B6CF0D0A0041542B43521D
:1001860045473F00D7A2B2E1D6D02E2E2E2E2E0006
:0F0629000123000124000125000121000122000E
:100469001206501205AC1205F512000ED2AF7BFF31
:100479007A0079461205427BFF7A00795B120542C0
:100489001203897BFF7A0079701205427BFF7A009B
:1004990079831205421200267BFF7A00799B1205A7
:0F04A900427BFF7A0079A612054212019680FB72
:030023000206458D
:0B064500309802C298309902C299322E
:03004300020501B2
:10050100C0E0C083C082C0D053AFFEE59A30E01D89
:10051100539AFE743C2524F582E43400F583E59B6F
:10052100F00524E524D394C84003752400E59A30EE
:10053100E103539AFD43AF01D0D0D082D083D0E004
:010541003287
:03000B000204B834
:0D04B800C0E0C0F0C0D075D000C000C0078B
:1004C500C28C0521E521C394324005752100B2A1F6
:1004D5003000020523E52575F032A4FFD3E5239FFF
:1004E500E5F06480F87480984005C200752300D259
:0104F5008C7A
:0B04F600D007D000D0D0D0F0D0E03212
:0B06500053B1C343B23CC2B3C2A122AD
:10000E00538E7F5389F0E4F58A758C70C28DD28C35
:03001E00D2A92242
:0F061900E4FF7EC890003CE4F0A3DEFCE4F5248F
:0106280022AF
:10058C008B108A1189128B168A1789187B017A00B5
:10059C00793C120307E94A4B60037F01227F00225A
:0403FB007BFF7D0304
:0803FF008D0B8B088A09890AA5
:100407008B0D8A0E890F120619E4F50CE50C704F57
:100417007BFF7A0079B312058CEF703C2000ED85E5
:100427000D08850E09850F0AAB08AA09A90A120546
:10043700C5FF60101206087401250AF50AE435099C
:10044700F50980E47F0D1206087F0A120608E4F515
:1004570023850B25D20080B4750C01C20080AD0244
:02046700061974
:100026007A0079B61203FB7A0079BB1203FB7BFFD9
:090036007A0079D67D030203FF74
:10019600E522703F7516FF7517007518E07B017A2A
:1001A60000793C120307E94A4B700302027A7BFF8F
:1001B6007A0079E57D031203FF7BFF7A0079E91265
:1001C60005427522017BFF7A0079F27D031203FF57
:1001D6000202777516FF75170175181B7B017A00E9
:1001E600793C120307E94A4B60647BFF7A01792266
:1001F6001205427516FF75170175182F7B017A00D7
:10020600793C120307E94A4B6015D2B37BFF7A01AA
:1002160079317D031203FF7BFF7A017945802A75C8
:1002260016FF75170175184F7B017A00793C12038A
:1002360007E94A4B6016C2B37BFF7A0179517D0309
:100246001203FF7BFF7A017965120542802375163A
:10025600FF75170175186F7B017A00793C12030749
:10026600E94A4B600F7BFF7A01797A120542E4F581
:040276002212061931
:01027A002261
:10038900E4F508120619E50870671206197BFF7A69
:100399000179811205677F0D1206087F0A12060886
:1003A9007F887E131205DEE4F509743C2509F58280
:1003B900E43400F583E0B43A2474402509F582E475
:1003C9003400F583E0FF64316004EFB4350F75083C
:1003D900017F0D1206397F0A12063980090509E5E0
:1003E90009C394C840C47BFF7A01798A1205428007
:0103F900956E
:0103FA0022E0
:1005DE007DA57C06ED1D70011C144C70F7EF1F708D
:0605EE00011E144E70EA2C
:0105F40022E4
:1005AC00759850438E40538EFE53890F758BD075C2
:0905BC008DFFC2ABD28ED2AC223D
:1005F500759A50438E0475D7D075D6FF438E104338
:03060500AF012220
:0C063900C2AC8F993099FDC299D2AC225E
:100542008B0A8A0B890CAB0AAA0BA90C1205C5608F
:1005520013050CE50C7002050B14F91205C5FF1208
:05056200063980E222D1
:1006080053AFFE8F9BE59A30E1FB539AFD75AF011E
:0106180022BF
:100567008B0A8A0B890CAB0AAA0BA90C1205C5606A
:1005770013050CE50C7002050B14F91205C5FF12E3
:05058700060880E222DD
:0300000002027B7E
:0C027B00787FE4F6D8FD7581250202C2F0
:1005C500BB010689828A83E0225002E722BBFE0234
:0905D500E32289828A83E4932267
:100307008B138A148915AB16AA17A9181205C5608D
:1003170063AB13AA14A9151205C5605F8516198565
:10032700171A85181B8B1C8A1D891EAB19AA1AA9B7
:100337001B1205C5FF6023AB1CAA1DA91E1205C50C
:100347006F701704251BF51BE4351AF51A74012580
:100357001EF51EE4351DF51D80D1AB19AA1AA91B80
:100367001205C57002800D74012515F515E43514C5
:10037700F514809DAB13AA14A915227B007A007986
:02038700002252
:10028700020469E493A3F8E493A34003F68001F220
:1002970008DFF48029E493A3F85407240CC8C33378
:1002A700C4540F4420C8834004F456800146F6DF47
:1002B700E4800B0102040810204080900629E47EA8
:1002C700019360BCA3FF543F30E509541FFEE4933C
:1002D700A360010ECF54C025E060A840B8E493A303
:1002E700FAE493A3F8E493A3C8C582C8CAC583CA2E
:1002F700F0A3C8C582C8CAC583CADFE9DEE780BEE6
:0106380000C1
:00000001FF
