:03000000020026D5
:0C002600787FE4F6D8FD75812002006DA3
:070003008F14E51470FC22CC
:1001AF0041544431333739383938333937333B0DCC
:0B01BF000A0041542B435245473F000B
:10000E00010900010A00010E00030BFF01AF0108F8
:01001E0000E1
:1001CA001201FC120020D2AF1201901200B2AB0B46
:0901DA00AA0CA90D12016B80FEB4
:0300230002010FC8
:10010F00C0E0C083C082C0D030981CC29874002554
:10011F000AF582E43400F583E599F0050AE50AD380
:10012F0094C84003750A00309902C299D0D0D0828A
:05013F00D083D0E03286
:03000B00020144AB
:04014400C0E0C0D087
:10014800758A00758CB8C28C0508E5146002151410
:0E015800E508C394324005750800B292D28CBF
:05016600D0D0D0E03212
:03002000C2922267
:1001FC00538E7F5389F0438901E4F58A758CB8C21C
:06020C008DD28CD2A92264
:0F021200E4FF7EC8900000E4F0A3DEFCE4F50AF0
:0102210022BA
:1000B200E4F50F120212E50F70521202127BFF7A60
:1000C2000179C112016B7F0D1202227F0A120222F4
:1000D2007FFA120003E4F510E510C394C850D774F8
:1000E200002510F582E43400F583E0B43A1A740472
:1000F2002510F582E43400F583E0FF64316004EFFB
:0C010200B43505750F0180AE051080CCEF
:01010E0022CE
:1001900053877F759850538EBF538EFE53890F43FC
:0F01A0008920758BFD758DFDC2ABD28ED2AC223E
:0C022200C2AC8F993099FDC299D2AC2279
:10016B008B118A128913AB11AA12A9131201E36026
:10017B00130513E5137002051214F91201E3FF12B4
:05018B00022280E222C7
:100032000201CAE493A3F8E493A34003F68001F219
:1000420008DFF48029E493A3F85407240CC8C333CF
:10005200C4540F4420C8834004F456800146F6DF9E
:10006200E4800B010204081020408090000EE47E20
:10007200019360BCA3FF543F30E509541FFEE49393
:10008200A360010ECF54C025E060A840B8E493A35A
:10009200FAE493A3F8E493A3C8C582C8CAC583CA85
:1000A200F0A3C8C582C8CAC583CADFE9DEE780BE3D
:01001F0000E0
:1001E300BB010689828A83E0225002E722BBFE021A
:0901F300E32289828A83E493224D
:00000001FF
