:03000000020455A2
:0C045500787FE4F6D8FD75813D02049C20
:100026007DA57C06ED1D70011C144C70F7EF1F704A
:06003600011E144E70EAE9
:01003C0022A1
:100269004E6972656E2D656C656320426C756574A7
:100279006F6F746820746573740D0A1A0053494DC1
:10028900383038C4A3BFE9C0B6D1C0B2E2CAD4B3CA
:10029900CCD0F20D0A00C7EBB4F2BFAACAD6BBFA9A
:1002A900C0B6D1C0B4AEBFDAD6FACAD60D0A005369
:1002B900494D383038C4A3BFE9C1ACBDD3D6D00D40
:1002C9000A0041542B4254504F5745523D310D0AB3
:1002D9000041540041542B4254554E504149523D1E
:1002E900300D0A0053494D383038C4A3BFE9BFAABD
:1002F900CABCCAD5CBF7C0B6D1C0C9E8B1B82CC7FA
:10030900EBC8B7C8CFCAD6BBFAC0B6D1C0B4A6D35A
:10031900DABFC9B1BBB7A2CFD60D0A00CAD5CBF790
:10032900C9E8B1B82E2E2E2E2E2E2E2E2E2E2E2E82
:100339000D0A0041542B42545343414E3D312C3157
:10034900300D0A002B42545343414E3A2031002BC1
:1003590042545343414E3A203000C1ACBDD3B5DAC3
:10036900D2BBB8F6C9E8B1B82E2E2E2E2E2E2E2EBF
:100379002E2E2E2E0D0A0041542B42545041495223
:100389003D302C310D0A002B425450414952494EFF
:10039900473A0041542B4254504149523D312C3186
:1003A9000D0A002B4254504149523A002B425450F5
:1003B9004149523A20310053494D383038C4A3BF1E
:1003C900E9C0B6D1C0C6A5C5E4B3C9B9A60D0A002E
:1003D90041542B425447455450524F463D310D0A22
:1003E90000425447455450524F463A203400415434
:1003F9002B4254434F4E4E4543543D312C340D0A44
:10040900004F4B0053494D383038C4A3BFE9C0B63B
:10041900D1C0BDA8C1A2535050B7FECEF1B3C9B9DE
:10042900A60D0A00444154413A000D0A002C00BDB2
:10043900D3CAD5B5BDB5C4C4DAC8DD3A0041542B19
:0C044900425453505053454E44003E00B6
:1006FF000313FF026902090000010C00011600013B
:02070F000800E0
:1000460012074A12000E1206E91206D3D2AF7BFF40
:100056007A02798612068E7BFF7A02799F12068EC5
:100066007BFF7A0279B812068E7527FF752802750E
:1000760029DA752A027BFF7A0279CB1205637F643F
:100086007E001200267527FF7528027529DA752A63
:10009600027BFF7A0279DD1205637BFF7A0279ED36
:1000A60012068E7BFF7A03792512068E7527FF7559
:1000B600280375294D752A0B7BFF7A03793C1205B7
:1000C600637535FF7536037537587B017A00793CC1
:1000D6001204E1E94A4B60CB7BFF7A03796312068F
:1000E6008E7527FF752803752990752A037BFF7A7D
:1000F6000379801205637FC87E001200267527FFEC
:100106007528037529AC752A237BFF7A03799C121F
:1001160005637F647E001200267535FF753603750C
:1001260037B57B017A00793C1204E1E94A4B60B1AC
:100136007BFF7A0379C012068E7BFF7A02799F12C3
:10014600068E7527FF7528037529EA752A057BFF34
:100156007A0379D91205637527FF75280475290A6C
:10016600752A027BFF7A0379F71205637BFF7A040F
:10017600790D12068E0202297535FF75360475371C
:100186002D7B017A00793C1204E18B0D8A0E890FD2
:10019600E94A4B60047F0180027F00EF7003020290
:1001A6002F7535FF753604753733AB0DAA0EA90FBB
:1001B6001204E18B108A118912E94A4B60047F010F
:0701C60080027F00EF60B131
:1001CD00AB10AA11A912E412067C7535FF75360421
:1001DD00753736AB0DAA0EA90F1204E18B218A22B9
:1001ED008923E92401F9E43AFA7535FF753604756A
:1001FD0037361204E18B0D8A0E890F7BFF7A047955
:10020D003812068EAB0DE50F2401F9E4350EFA1206
:0F021D00068E7F0D1207337F0A12073312072355
:10022C0002017EE50BD39464500302017E7527FF17
:10023C00752804752953752A017BFF7A04794612B7
:10024C0005637527FF75280475290A752A01AB13F8
:0D025C00AA14A915120563E4F50B02017E3A
:0300230002073F92
:0B073F00309802C298309902C2993233
:0300430002062290
:10062200C0E0C083C082C0D053AFFEE59A30E01D67
:10063200539AFE743C250CF582E43400F583E59B65
:10064200F0050CE50CD394C84003750C00E59A3014
:10065200E103539AFD43AF01D0D0D082D083D0E0E2
:010662003265
:03000B000205CE1D
:0B05CE00C0E0C0F0C0D075D000C00736
:1005D900C28CC28D0508E508C39432400575080030
:1005E900B290300008050AE50A70020509E516759A
:1005F900F032A4FFD3E50A9FE50995F04008C2004F
:10060900750900750A00050B758A00758CB8D28CBE
:09061900D007D0D0D0F0D0E032BF
:0B074A0053B1C343B23CC291C29022E5
:1006D300538E7F5389F0438901E4F58A758CB8C240
:0606E3008DD28CD2A92289
:0F072300E4FF7EC890003CE4F0A3DEFCE4F50C9C
:0107320022A4
:1006B3008B2F8A3089318B358A3689377B017A00D3
:1006C300793C1204E1E94A4B60037F01227F002257
:060563008B248A25892685
:100569008B2C8A2D892E120723E4F52BE52B705449
:10057900AB27AA28A9291206B3EF70412000ED1272
:100589000723852C24852D25852E26AB24AA25A96C
:1005990026120663FF601012071274012526F5263C
:1005A900E43525F52580E47F0D1207127F0A12072D
:1005B90012E4F509F50A852A16D20080AF752B01D8
:0405C900C20080A844
:0105CD00220B
:10000E0053877F759850438E04759CFD438E014334
:05001E008E10D2AC229F
:1006E900538EF7759A50438E04759CFD438E0143D2
:0606F9008E1043AF012248
:0C073300C2AC8F993099FDC299D2AC2263
:10068E008B248A258926AB24AA25A9261206636007
:10069E00130526E5267002052514F9120663FF12CE
:0506AE00073380E22289
:1007120053AFFE8F9BE59A30E1FB539AFD75AF0113
:0107220022B4
:10046100020046E493A3F8E493A34003F68001F26B
:1004710008DFF48029E493A3F85407240CC8C3339C
:10048100C4540F4420C8834004F456800146F6DF6B
:10049100E4800B01020408102040809006FFE47EF6
:1004A100019360BCA3FF543F30E509541FFEE49360
:1004B100A360010ECF54C025E060A840B8E493A327
:1004C100FAE493A3F8E493A3C8C582C8CAC583CA52
:1004D100F0A3C8C582C8CAC583CADFE9DEE780BE0A
:0107110000E7
:10066300BB010689828A83E0225002E722BBFE0295
:09067300E32289828A83E49322C8
:10067C00BB010689828A83F0225002F722BBFE015D
:02068C00F32257
:1004E1008B328A338934AB35AA36A9371206636059
:1004F10063AB32AA33A934120663605F8535388550
:10050100363985373A8B3B8A3C893DAB38AA39A9C4
:100511003A120663FF6023AB3BAA3CA93D12066376
:100521006F701704253AF53AE43539F53974012528
:100531003DF53DE4353CF53C80D1AB38AA39A93ACB
:100541001206637002800D74012534F534E43533ED
:10055100F533809DAB32AA33A934227B007A00792E
:02056100002276
:00000001FF
