:020000040800F2
:1000000030080020713A0008851A0008871A000895
:100010008B1A00088F1A0008931A000800000000CD
:10002000000000000000000000000000971A000817
:10003000991A0008000000009B1A00089D1A000889
:100040008B3A00088B3A00088B3A00088B3A00087C
:100050008B3A00088B3A00088B3A00088B3A00086C
:100060008B3A00088B3A00088B3A00088B3A00085C
:100070008B3A00088B3A00088B3A00088B3A00084C
:100080008B3A00088B3A00088B3A00088B3A00083C
:100090008B3A00088B3A00088B3A00088B3A00082C
:1000A0008B3A00088B3A00088B3A00088B3A00081C
:1000B000F11700088B3A00088B3A00088B3A0008C9
:1000C0008B3A00088B3A00088B3A00088B3A0008FC
:1000D0008B3A000849170008BD1700088B3A000842
:1000E0008B3A00088B3A00088B3A000800F002F8BF
:1000F00000F03AF80AA090E8000C82448344AAF188
:100100000107DA4501D100F02FF8AFF2090EBAE885
:100110000F0013F0010F18BFFB1A43F0010318473B
:10012000603D0000803D0000103A24BF78C878C1CF
:10013000FAD8520724BF30C830C144BF04680C60ED
:10014000704700000023002400250026103A28BF35
:1001500078C1FBD8520728BF30C148BF0B60704739
:100160001FB51FBD10B510BD03F0B8FD1146FFF758
:10017000F7FF01F0D3FA03F0D6FD03B4FFF7F2FF67
:1001800003BC03F0DDFD0000002004E00021E34A91
:100190001154411C88B2C828F8DB0021E04A1170D4
:1001A00070472DE9F04104460F4615460126FFF73A
:1001B000EBFF0BE000BF4021DA4803F00FFB002803
:1001C000F9D02178D74803F09BFA641C20780028E6
:1001D000F0D1D5A001F053FD15B93046BDE8F0814E
:1001E0000020D2490880D24805700120D14908700A
:1001F00007E03946C94803F061FC08B9012600E070
:100200000026CC48007830400028F2D13046E5E79F
:1002100030B5BFB000242022C7A137A803F0E8FC06
:100220000025CDA001F09FFCDBA001F09CFCE0A02C
:1002300001F099FCE7A001F096FC0222ECA1EDA0F0
:10024000FFF7AFFF28B1EEA001F08DFC01203FB019
:1002500030BDF4A101A803F043FC0C2537A803F03E
:1002600063FC84B2691E01AA881837A903F038FC20
:1002700022212819401E01AA115400202919505486
:100280000322DBA101A8FFF78CFF2BE0E8480088E0
:1002900000F40040002825D0E5480088C0F30D0494
:1002A000642C00DD64240020E1490880042C06D180
:1002B000E0A1E24803F002FC08B10020C7E7D9A0A2
:1002C00001F0DDFC2220DD4908550021DB4A601CDD
:1002D00011540222C6A1D948FFF763FF10B1D8A07C
:1002E00001F041FCD2E770B5DCA001F03CFCAAA013
:1002F00001F039FC0222BEA1E8A0FFF752FF022262
:10030000BBA1EEA0FFF74DFF0522B9A1F2A0FFF7B8
:1003100048FF20B1F4A001F026FC012070BD0522A9
:10032000B3A1FAA0FFF73DFF20B1FCA001F01BFC38
:100330000220F3E70120FE49087072E0BC48008803
:1003400000F4004088B10020B9490880B9A1BB4839
:1003500003F0B4FB30B10222A5A1F6A0FFF721FF04
:100360000020DBE7F7A001F0FEFB0A22A0A1F8A025
:10037000FFF717FF002848D10120ED490870F9A1C7
:10038000664803F09BFB044667A1204603F096FBFA
:100390000546002C39D0F3A1204603F089FB064620
:1003A000F1A001F0E0FB304601F0DDFB092001F097
:1003B000CCFBECA1002003F07BFB0646ECA001F097
:1003C000D2FB304601F0CFFB092001F0BEFBE5A1D6
:1003D000002003F06DFB0646E7A001F0C4FB3046A9
:1003E00001F0C1FB092001F0B0FBDEA1002003F009
:1003F0005FFB064600202870E1A001F0B4FB304608
:1004000001F0B1FB48A001F0AEFBC94800780B2811
:1004100007DD0020C6490870B3A001F0A4FB01204D
:100420007CE78BE730B502460023002000BF09E0DF
:1004300000EB8004600012F8014B303C0444E0B251
:100440005C1CE3B28B42F3DB30BD2DE9F043B3B06B
:100450000024A0460025CCA001F085FBD64801F081
:1004600082FBD6A001F07FFB4BA001F07CFBDFE21A
:100470006F48008800F4004020B36D480088C0F346
:100480000D04C62C00DDC62400206949088069A13E
:100490006A4803F013FB10B14FF00408DDE1D3A16B
:1004A000664803F00BFB10B14FF00108D5E1D1A174
:1004B000624803F003FB10B14FF00208CDE14FF0AA
:1004C0000008CAE1CDA1154803F0F8FA68B1012D82
:1004D0000BD1CDA001F047FB012095490870022502
:1004E0004FF00308FFF750FEACE1012D14D1C9A174
:1004F0000A4803F0E3FA78B18D4800780A280BDD4A
:10050000C6A001F030FB00BF4021C74803F066F9E8
:100510000028F9D0864889E194E100000801002014
:1005200002000020004400400D0A000004000020EA
:100530000300002009000020C4E3BAC3B8D0D0BB38
:10054000C4E3B9BAC2F2C4E0C8CBB5E7D7D34753C6
:100550004DBFAAB7A2B0E5004040404040404040F7
:100560004040404040404040404040404054545350
:10057000CEC4B1BED3EFD2F4B2E2CAD440404040C0
:10058000404040404040404040404040404040406B
:100590004040400D0A000000CDCBB3F6B2E2CAD411
:1005A000A3BACDCBB3F62BBBD8B3B50D0A00000070
:1005B000D3EFD2F4B2A5B7C5A3BAD6B1BDD3CAE4BE
:1005C000C8EBB2A5B7C5B5C4C4DAC8DD2BBBD8B378
:1005D000B50D0A00D7A2D2E2A3BAD7EEB4F3D6A7DC
:1005E000B3D6313030B8F6D7D6BDDA0D0A000000E8
:1005F0004F4B000041542B435454533D3F000000E7
:10060000B4EDCEF3A3BAC7EBB2E9D1AFC4A3BFE94F
:10061000CAC7B7F1BEDFB1B8B8C3B9A6C4DC0D0A0A
:100620000000000041542B435454533D322C22000F
:1006300000000020CDCBB3F60000000040000020F9
:10064000B5C8B4FDC9CFD2BBD6A1CAFDBEDDB2A527
:10065000B7C5CDEAB1CF0D0A0000000040404040D0
:10066000404040404040404040404040404040408A
:1006700040BBF9D5BEB6A8CEBBB2E2CAD44040401A
:10068000404040404040404040404040404040406A
:100690004040404040400D0A0000000041542B53B0
:1006A000415042523D332C312C22436F6E7479708D
:1006B00065222C22475052532200000041542B53F4
:1006C000415042523D332C312C2241504E222C229B
:1006D000434D4E455422000041542B534150425249
:1006E0003D312C3100000000B4F2BFAACAA7B0DC33
:1006F000A3ACC7EBC8B7C8CFC4A3BFE9CAC7B7F19B
:10070000D3D0B8C3B9A6C4DC0D0A000041542B53A2
:10071000415042523D322C3100000000BBF1C8A1D3
:10072000B1BEB5D84950B4EDCEF30D0A00000000BB
:100730000800002041542B53415042523D302C318F
:1007400000000000CAE4C8EBB4EDCEF30D0A0000CF
:1007500041542B43495047534D4C4F433D312C316D
:10076000000000002C000000BEADB6C83A0000003A
:10077000CEB3B6C83A000000C8D5C6DA3A000000C9
:10078000CAB1BCE43A000000404040404040404014
:1007900040404040404047505253B2E2CAD44040EB
:1007A0004040404040404040404040404040404049
:1007B0004040400D0A000000503D0008B7A2CBCDDC
:1007C000C4DAC8DDA3BAB7A2CBCD2BC4DAC8DD2BFF
:1007D000BBD8B3B50D0AC8E7A3BAB7A2CBCDC4E066
:1007E000C8CBB5E7D7D30D0A00000000C9E8D6C3CF
:1007F00000000000B7A2CBCD00000000434F4E4EDA
:10080000454354204F4B0000C1ACBDD3B3C9B9A67A
:100810000D0A0000434C4F5345440000C1ACBDD30A
:10082000CAA7B0DC0D0A0000003801400178FD487D
:1008300002F066FF0020FC49087000254FF0010817
:10084000FFF7A2FC022D08D1F74800780A2804DD42
:100850000120F54908704FF00308B8F1050F28D2C0
:10086000DFE808F003288DBED700F0A1F14803F0BF
:1008700025F9F0B1F0A001F076F9AFF21811ED48CA
:1008800003F01CF90646AFF21C11EA4803F016F912
:100890000746B81B401EC1B2701CFFF7C3FD81465E
:1008A0004946781C01F072F9E5A001F05CF9FFF708
:1008B0006BFCBCE0E3A1E44803F000F928B9E3A134
:1008C000E14803F0FBF8002853D0E1A101A803F0B0
:1008D00007F9221FDC49091D04A803F044F900218F
:1008E00001AA04F10C0011540222DDA1DFA0FFF7E0
:1008F00058FC0222E1A1E3A0FFF753FC0222AFF271
:100900001031E3A0FFF74DFC0222AFF21C31E4A04E
:10091000FFF747FC0222AFF22831E8A0FFF741FCC5
:100920000222AFF23431E8A0FFF73BFC0222AFF223
:100930004031EBA0FFF735FC0222AFF24C31ECA0C6
:10094000FFF72FFC0222AFF2583101A8FFF729FC74
:1009500038B9EAA001F007F90120B3490870012570
:100960000AE0EAA001F0FFF80020AF490870002576
:1009700002E0E6A001F0F7F84FF0000857E0022D82
:1009800028D1E7A001F0EFF80222EBA1EBA0FFF7DE
:1009900008FCC0B91A20AC4908550021AA4A601CBD
:1009A00011540822E8A1A848001DFFF7FAFB30B94E
:1009B000E7A001F0D8F801209B4908700DE0E7A0FE
:1009C00001F0D1F809E01B2001F04BF9E3A001F0A0
:1009D000CAF802E0E4A001F0C6F84FF0000826E0F3
:1009E0000222D5A1D5A0FFF7DCFB48B9002001F019
:1009F00038F91A2001F035F9DEA001F0B4F805E06D
:100A00001B2001F02EF9DEA001F0ADF84FF0000838
:100A10000DE0052292A195A0FFF7C3FB052297A147
:100A200098A0FFF7BEFB012033B0BDE8F08300BF04
:100A30001EE52DE9F0418EB00026B0460024D348D3
:100A400001F091F8D24801F08EF8D24801F08BF80D
:100A5000D1A001F088F8DBA001F085F80222AFF206
:100A60007041E0A0FFF79DFB0222AFF27C41E0A0C5
:100A7000FFF797FB0322AFF28841E2A0FFF791FB5B
:100A800045E2E648008800F4004000282ED0E34804
:100A90000088C0F30D06C62E00DDC6260020DF4903
:100AA0000880AFF27041684803F008F818B10020E0
:100AB0000EB0BDE8F081AFF2CC21634802F0FEFF3A
:100AC00010B14FF0030811E0D5A15F4802F0F6FF26
:100AD00010B14FF0020809E0D3A15B4802F0EEFF2D
:100AE00010B14FF0010801E04FF00008B8F1000F1D
:100AF00009D0B8F1010F1DD0B8F1020F65D0B8F1DF
:100B0000030F16D1DFE1C9A14A4802F0D7FF80B137
:100B1000C8A001F028F8CAA001F025F8AFF2BC3156
:100B2000444802F0CBFF0546681C01F01CF8FFF7B3
:100B30002BFBEBE1C5A001F016F8002042498855D7
:100B4000C5A101A802F0CCFF0D24B7A13E4802F0D8
:100B5000B5FF054600203C49691A3B4A5054611EC6
:100B600001AA8818384902F0BBFF01A802F0DCFF97
:100B7000C4B2222001A90855002101AA601C115409
:100B800002226DA101A8FFF70CFB691C01A802F06D
:100B9000A7FF01A802F0C8FFC4B21A2001A9085596
:100BA000002101AA601C11541422AFF2BC5101A80B
:100BB000FFF7F7FA18B9ACA000F0D5FF02E0AEA03D
:100BC00000F0D1FF4FF00008A0E1AFA000F0CBFF94
:100BD00000201D498855AFA11B4802F06FFF054654
:100BE000ADA101A802F07CFF01A802F09DFFC4B2F4
:100BF00001A90819A91C02F073FF01A802F094FFD3
:100C0000C4B20522AFF2186101A8FFF7CAFA40B9D1
:100C10000BA10848801C02F051FF054608A1A81C42
:100C200040E14BE100380140080000202B495044CE
:100C30000000000008010020D3D0D0C2C4DAC8DD13
:100C40000D0A00005443500040000020554450005D
:100C500041542B43495053544152543D000000002D
:100C6000434C4F5345204F4B0000000041542B4351
:100C70004950434C4F53453D3100000053485554B3
:100C8000204F4B0041542B434950534855540000CA
:100C900041542B4347434C4153533D2242220000D1
:100CA00041542B434744434F4E543D312C2249502D
:100CB000222C22434D4E45542200000041542B4328
:100CC000474154543D31000041542B434950435354
:100CD00047503D312C22434D4E4554220000000028
:100CE00041542B434950484541443D3100000000E8
:100CF00041542B4349504D55583D3000D5FDD4DA71
:100D0000B7A2C6F0C1ACBDD30D0A0000CAE4C8EB5F
:100D1000B4EDCEF3A3ACC7EBD6D8CAE40D0A0000FD
:100D2000BFAACABCB7A2CBCD2E2E2E2E2E2E2E2E73
:100D30002E2E2E0D0A0000003E00000041542B43D1
:100D4000495053454E44000053454E44204F4B00FC
:100D5000B7A2CBCDB3C9B9A60D0A0000B7A2CBCDBF
:100D6000CAA7B0DC0D0A0000BBB9C3BBC1ACBDD380
:100D70000D0A0000D0C4CCF8B3C9B9A60D0A000012
:100D8000D0C4CCF8CAA7B0DC0D0A00009C3D000816
:100D90003C3E0008EC3D0008B2E9BFB4B6CCD0C57B
:100DA000A3BAB2E9BFB4A3BA7878A3AC7878B4FA9E
:100DB000B1EDB6CCD0C5B5C4B4E6B4A2CEBBD6C3F3
:100DC0000D0A0000CDCBB3F6B2E2CAD4A3BACAE48E
:100DD000C8EBA1B0CDCBB3F62BBBD8B3B5A1B10D49
:100DE0000A00000041542B434D47463D31000000AE
:100DF00041542B434E4D493D332C312C302C302C5B
:100E00003000000041542B43504D533D22534D229E
:100E10002C22534D222C22534D2200000000002092
:100E2000B2E9BFB4000000002B0000002B434D547A
:100E3000493A0000D3D0D0C2B6CCD0C50D0A0000CC
:100E4000B6CCD0C5CEBBD6C33A200000B7A2CBCD1E
:100E5000B6CCD0C50D0A000041542B434D47533D3D
:100E6000222B383600000000B7A2CBCDB6CCD0C5BF
:100E7000B3C9B9A60D0A0000B7A2CBCDB6CCD0C578
:100E8000CAA7B0DC0D0A0000B2E9BFB4B6CCD0C529
:100E90000D0A0000A3BA000041542B434D47523DB8
:100EA0000000000002F00AFE0746781BC4B2E7A06B
:100EB00000F059FE2146A81C00F068FEFFF764F917
:100EC0004FF0000822E0E4A000F04DFE0020E649CB
:100ED0008855E6A101A802F003FE0924611E01AABB
:100EE0008818E149091D02F0FBFD0322AFF600114D
:100EF00001A8FFF756F918B9DFA000F034FE02E0B0
:100F0000DDA000F030FE4FF0000800BF00BFB8E5E4
:100F10002DE9F0418EB00026002400250027A046D0
:100F2000DBA000F020FEE3A000F01DFEEAA000F030
:100F30001AFEF1A000F017FEF7A000F014FEAFF2C9
:100F40007C1000F010FEBEE0FC48008800F4004079
:100F500000282AD0F9480088C0F30D060020F74980
:100F60000880AFF63011C04802F0A8FD18B100208B
:100F70000EB0BDE8F081F2A1BB4802F09FFD08B1C0
:100F8000012512E0F0A1B84802F098FD08B1022551
:100F90000BE0EFA1B44802F091FD08B1032504E095
:100FA0000DB9002501E004250127052D0ED2DFE84B
:100FB00005F0030E1A265C00E7A1E94802F07EFD69
:100FC00020B1FFF7E1F8E7A000F0CDFD7AE00222C2
:100FD000AFF6E411E6A0FFF7E4F818B9E5A000F0D9
:100FE000C2FD04256EE00222AFF6FC11E4A0FFF77B
:100FF000D8F810B9E3A000F0B6FD002562E0E4A047
:1010000000F0B1FD301FC1B29748001D00F0BEFDD9
:10101000E1A101A802F064FD032406E09249601CEE
:10102000085C01A90855601C84B2701EA042F5DC62
:101030003B222046611C8CB201A90A5400222046A2
:10104000611C8CB201A90A540822AFF65C2101A8E8
:10105000FFF7A7F820B9D1A000F085FD042503E033
:10106000D1A000F080FD00252CE08FB10027D2A197
:1010700001A802F035FD7C4800788DF80B000020B7
:101080008DF80C000322AFF6982101A8FFF789F82C
:10109000CBA1B34802F012FD98B10A2000F096FEF1
:1010A000BCA1AF4802F00AFD8046C7A000F05BFD7E
:1010B00098F8020000F049FDB0A000F054FDFFF7E1
:1010C00063F800BF00BF3FE770B50025FFF75CF88D
:1010D0000322AFF6E421C0A0FFF763F820B1C1A05E
:1010E00000F041FD45F00105FFF74EF80322AFF691
:1010F0000031C3A0FFF755F8C8B9AFF24441984892
:1011000002F0DCFC0446A4B1AFF25441601C02F0D2
:10111000D5FC0646BDA000F026FD301B401EC1B226
:10112000601C00F033FD95A000F01DFD01E045F0CE
:101130000205FFF729F80322AFF64C31B5A0FFF7FF
:1011400030F8C0B993A1864802F0B8FC0446A4B1B7
:10115000AFF6F011601C02F0B1FC0646AFA000F043
:1011600002FD301B801EC1B2A01C00F00FFD83A049
:1011700000F0F9FC01E045F004050322AFF69031E0
:10118000A9A0FFF70EF830B9AAA000F0ECFC7BA0F4
:1011900000F0E9FC05E0B6A000F0E5FC77A000F067
:1011A000E2FC0322AFF6B831AFF6B830FEF7F9FF34
:1011B00030B9BEA000F0D7FC70A000F0D4FC05E070
:1011C000C6A000F0D0FC6DA000F0CDFC0322AFF66D
:1011D000E031C8A0FEF7E5FF30B9CAA000F0C3FCBB
:1011E00066A000F0C0FC05E0D0A000F0BCFC63A04D
:1011F00000F0B9FCFEF7C8FF284670BD70B5D0A05E
:1012000000F0B1FCFEF7C0FF0522AFF61C41D5A0EF
:10121000FEF7C7FF88B9D5A000F0A5FC57A150483C
:10122000801C02F04BFC04464D48201AC1B24C48C9
:10123000801C00F0ABFCFEF7A7FF0522AFF6504183
:10124000CCA0FEF7AEFF00B998E1A9E1B6CCD0C5BD
:10125000C4DAC8DDA3BA0000C9E8D6C3D6D0D0C46A
:10126000BAC50D0A000000004000002041542B4385
:101270005343413D00000000B6CCD0C5D6D0D0C409
:10128000BAC5C9E8D6C3B3C9B9A60D0A00000000A3
:101290004040404040404040404040B2A6BAC5B205
:1012A000E2CAD440404040404040404040400D0AE7
:1012B00000000000B2A6B4F2B5E7BBB0A3BACAE41E
:1012C000C8EBA1B0D6C2B5E7787878782BBBD8B395
:1012D000B5A1B10D0A000000BDD3CCFDB5E7BBB090
:1012E000A3BACAE4C8EBA1B0BDD3CCFD2BBBD8B325
:1012F000B5A1B10D0A000000B9D2B6CFB5E7BBB0B9
:10130000A3BACAE4C8EBA1B0B9D2B6CF2BBBD8B34D
:10131000B5A1B10D0A00000044544D46D3EFD2F4FC
:10132000A3BACAE4C8EBA1B0B5A5B8F6D7D6B7FB47
:101330002BBBD8B3B5A1B10D0A00000000000020FE
:10134000BDD3CCFD00000000B9D2B6CF0000000034
:10135000D6C2B5E70000000052494E470000000029
:1013600008010020D3D0C0B4B5E70D0A000000008A
:1013700041544100BDD3CCFDB3C9B9A60D0A00004C
:1013800041544800B9D2B6CFB3C9B9A60D0A00007E
:10139000D6C2B5E73A00000041544400B2A6BDD021
:1013A000B3C9B9A60D0A0000C7EBD6D8D0C2BAF4AB
:1013B000BDD00D0A0000000041542B5654533D008F
:1013C00044544D463A000000B6D4B7BDB0B4CFC2C5
:1013D000B0B4BCFCA3BA000041542B4350494E3F6B
:1013E00000000000C7EBBCECB2E9CAD6BBFABFA84C
:1013F000CAC7B7F1D3D0B2E5C8EB0D0A00000000B0
:1014000041542B434F50533F00000000D4CBD3AA8C
:10141000C9CC3A0041542B4353510000D0C5BAC542
:10142000D6CAC1BF3A00000041542B444445543D44
:1014300031000000C4A3BFE9D6A7B3D644544D463B
:10144000D2F4C6B5BDE2C2EBA3ACBFC9D2D4D6B10B
:10145000BDD3CAB6B1F0B6D4B7BDCDA8BBB0B9FD47
:10146000B3CCD6D0B0B4CFC2B5C4B0B4BCFC0000CD
:10147000C4A3BFE9B2BBD6A7B3D644544D46D2F4F9
:10148000C6B5BDE2C2EBA3ACB2BBBFC9D2D4CAB62B
:10149000B1F0B6D4B7BDCDA8BBB0B9FDB3CCD6D0F2
:1014A000B0B4CFC2B5C4B0B4BCFC0000C4A3BFE9A3
:1014B000D6A7B3D6545453B1BEB5D8D3EFD2F4A304
:1014C000ACBFC9D2D4D6B1BDD3BDABCEC4B1BEB210
:1014D000A5B7C5B3C9D3EFD2F4000000C4A3BFE9D8
:1014E000B2BBD6A7B3D6545453B1BEB5D8D3EFD2FE
:1014F000F400000041542B43495047534D4C4F4397
:101500003D3F0000C4A3BFE9D6A7B3D6BBF9D5BE03
:10151000B6A8CEBBA3ACBFC9D2D4D6B1BDD3BBF1A4
:10152000C8A1B6A8CEBBD0C5CFA20000C4A3BFE956
:10153000B2BBD6A7B3D6BBF9D5BEB6A8CEBB00000A
:101540000D0A4E6952656E2D456C65632047534DFB
:101550002F4750525320B2E2CAD4B3CCD0F20D0A76
:101560000000000041542B43474D4900D6C6D4EC3F
:10157000C9CC3A0041542B43474D4D00F1A000F037
:10158000F2FAAFF20821F24802F098FA0446F04865
:10159000801E201AC1B2EE4800F0F8FAFEF7F4FD02
:1015A0000522AFF6B471EBA0FEF7FBFD88B9EBA006
:1015B00000F0D9FAAFF23C21E54802F07FFA044688
:1015C000E348801E201AC1B2E14800F0DFFAFEF7BE
:1015D000DBFD0222E4A1E6A0FEF7E3FDE0B9E6A010
:1015E00000F0C1FAAFF63011D948801E02F066FA59
:1015F0000446AFF63C11601C02F060FA0546AFF6F7
:101600004811681C02F05AFA04460B21601C00F0D5
:10161000BDFAFEF7B9FD00BFAFF2A02000F0A3FABB
:1016200070BD00240DE0D7A000F09DFA4FF4487083
:1016300000F0CCFBD7A000F096FA4FF4C87000F091
:10164000C5FB0522AFF64461D6A0FEF7AAFD00282F
:10165000E9D1C822AFF65461D3A0FEF7A2FDFFF78F
:10166000CDFDFFF731FD002812D10124D0A000F0FC
:101670007AFAD9A000F077FAD9A000F074FADAA0CB
:1016800000F071FADAA000F06EFADBA000F06BFA5D
:1016900043E0002C41D0DA48008800F400400028E4
:1016A0003BD00020D6490880D6A1D84802F006FADF
:1016B00010B1FFF72DFC1EE0D5A1D44802F0FEF9D1
:1016C00010B1FFF7B6F916E0D3A1D04802F0F6F951
:1016D00010B1FEF7BAFE0EE0D1A1CC4802F0EEF94F
:1016E00010B1FEF700FE06E0CFA1C84802F0E6F90F
:1016F00008B1FEF78DFDAEA000F035FAB6A000F0FF
:1017000032FAB7A000F02FFAB7A000F02CFAB8A078
:1017100000F029FAB8A000F026FABAE700F020FBA2
:1017200000F0CDFA4FF4E13000F0BCF94FF4E130B5
:1017300000F042FA00F07EFBBDA000F014FAC2A057
:1017400000F011FAFFF76DFF10B5C44801F0DCFF9F
:10175000C4B20020C2490870A948008800F40040C3
:1017600058BBA748008800F4804060B10A2C03D021
:101770000020A349088020E0A148008840F40040F0
:101780009F49088019E00D2C06D19D48008840F43F
:1017900080409B49088010E099480088C0F30D0004
:1017A0009A490C5496480088401C95490880084680
:1017B0000088C72801DD0020088010BD10B5002476
:1017C0000020A8490870A84801F09EFFC4B26048F4
:1017D000801EA64909784454A4480078401CA349B7
:1017E000087008460078C82801DD0020087010BD88
:1017F00010B50121880701F032FE002843D00121F5
:10180000880701F03DFE9A48007828B100F091FA6F
:1018100000209749087004E000F092FA01209449F2
:10182000087094480078012804DB92480078401C36
:10183000904908709048007820B190480088401C7A
:101840008E4908808D4800888D490978884204DDDA
:101850000020894908708949088082480078401C26
:10186000804908706648008820F4004058B17C48E0
:101870000078401C7A49087008460078C82802DBC6
:1018800000205F49088010BD02780B7803700A7051
:101890007047F0B507460D4600240AE00A2097FB82
:1018A000F0F100FB1170303028550A2097FBF0F75B
:1018B000641C002FF2D1002028552646002406E0A3
:1018C000AA19121B511E2819FFF7DEFF641C06EB34
:1018D000D671B4EB610FF3DB0020A855F0BDF0B575
:1018E0000346002000BF26E00E5C35110E5C06F0BA
:1018F0000F04092D06DD0E5C372707EB261603F8CB
:10190000106005E00E5C302707EB261603F8106028
:10191000092C07DD0E5C06F00F06373647007F1CEA
:10192000DE5506E00E5C06F00F06303647007F1CE1
:10193000DE55461CF0B29042D6DB002603F812605A
:10194000F0BD0000C4A3BFE9D0CDBAC53A00000085
:101950000A01002041542B4347534E00B2FAC6B748
:10196000D0F2C1D0BAC53A002B434E554D0000000D
:1019700041542B434E554D00B1BEBBFABAC5C2EB24
:101980003A000000CEB4BCECB2E2B5BDC4A3BFE9DE
:101990000D0A0000D5FDD4DAB3A2CAD4C1ACBDD3C0
:1019A0000D0A000041540000415445300000000081
:1019B000C7EBD1A1D4F13AD1A1D4F1CFE0D3A6B5F0
:1019C000C4D6D0CEC42BBBD8B3B5A3ACD4D9B7A2A0
:1019D000CBCD0D0A00000000B2A6BAC50900000078
:1019E000B6CCD0C509000000475052530900000092
:1019F000B6A8CEBB09000000D3EFD2F40D0A000058
:101A000000000020B2A6BAC500000000400000207F
:101A1000B6CCD0C500000000475052530000000073
:101A2000B6A8CEBB00000000D3EFD2F40000000047
:101A300047534DC4A3BFE9B6CCD0C5B2E2CAD4B3B4
:101A4000CCD0F20D0A00000047534DC4A3BFE9D427
:101A5000DAD7A2B2E1CDF8C2E70D0A0000380140A2
:101A60000600002007000020004400400200002083
:101A70000C000020080000200900002004000020C5
:101A800003000020704700BFFEE700BFFEE700BF75
:101A9000FEE700BFFEE770477047704710B500F0E3
:101AA000B8F910BD10B586B00446012144F2040017
:101AB00000F078FD7B4801F0E7FC4FF40070ADF8D2
:101AC000140018208DF8170003208DF8160005A9C2
:101AD000754800F0ABFA4FF48060ADF814000420B4
:101AE0008DF8170005A9704800F0A0FA01940020B5
:101AF000ADF80800ADF80A00ADF80C00ADF8100024
:101B00000C20ADF80E0001A9664801F000FD25206B
:101B10008DF8000002208DF8010001208DF80200F0
:101B20008DF80300684600F0B8F9012240F2255113
:101B30005C4801F084FD01215A4801F074FD402108
:101B4000584801F058FE06B010BD10B5044600BF5D
:101B50004021544801F042FE0028F9D02146514866
:101B600001F0CEFD10BD10B504460BE000BF4021D2
:101B70004C4801F033FE0028F9D014F8011B494805
:101B800001F0BEFD20780028F0D110BD70B50446EC
:101B90000D4684B10DE000BF4021424801F01EFE19
:101BA0000028F9D014F8011B3E4801F0A9FD681E79
:101BB000C5B2002DEFD170BD10B586B0044601212D
:101BC000480400F0FCFC0121042000F0EBFC374845
:101BD00001F05AFC0420ADF8140018208DF817000D
:101BE00003208DF8160005A92F4800F01FFA0820E1
:101BF000ADF8140004208DF8170005A92A4800F05C
:101C000015FA01940020ADF80800ADF80A00ADF80F
:101C10000C00ADF810000C20ADF80E0001A923480F
:101C200001F075FC26208DF8000001208DF80100E0
:101C300000208DF8020001208DF80300684600F0B6
:101C40002CF9012240F22551184801F0F8FC01213D
:101C5000164801F0E8FC4021144801F0CCFD06B024
:101C600010BD10B5044600BF4021104801F0B6FD7C
:101C70000028F9D021460D4801F042FD10BD10B5F5
:101C800004460BE000BF4021084801F0A7FD0028F2
:101C9000F9D014F8011B054801F032FD2078002826
:101CA000F0D110BD00380140000801400044004060
:101CB00010B54FF4F071294800F067FA10BD08B56F
:101CC0000121082000F06EFC4FF47870ADF80000A0
:101CD00010208DF8030003208DF8020069461F488C
:101CE00000F0A4F9FFF7E4FF08BD10B520211B4860
:101CF00000F049FA10BD10B52021184800F045FA4F
:101D000010BD10B54021154800F03DFA10BD10B5CA
:101D10004021124800F039FA10BD10B580210F485B
:101D200000F031FA10BD10B580210C4800F02DFAFA
:101D300010BD10B54FF48071084800F024FA10BDB2
:101D400010B54FF48071054800F01FFA10BD10B5B2
:101D50004FF4F071014800F016FA10BD000C01407C
:101D600030B500BF2F4800684FF47A72B0FBF2F133
:101D7000B1F1807F01D301201DE021F07F40401EA2
:101D80004FF0E022506150170F22002807DA1307A6
:101D90001D0E254B00F00F04241F1D5503E01307F3
:101DA0001C0E224B1C5400BF00204FF0E02290611B
:101DB0000720106100200028D4D14FF0E0200069F6
:101DC00020F001004FF0E021086130BD18490860A3
:101DD0004FF0E021096941F001014FF0E02211616B
:101DE00000BF134909680029FBD170474FF47A718D
:101DF00041430F4A11604FF0E021096941F00101B0
:101E00004FF0E022116100BF094909680029FBD1A8
:101E100070470748006820B105480068401E044923
:101E2000086070472800002018ED00E000E400E0A2
:101E3000100000201FB50121084600F0C0FB42F24F
:101E40000F70ADF8080041F61F40ADF80400002007
:101E5000ADF80A00ADF8060001A94FF0804000F08F
:101E6000D9FC1C208DF8000001208DF801008DF8B0
:101E700002008DF80300684600F00FF801221146B9
:101E8000900701F03EF80121880701F01FF81FBDFF
:101E900031490143314A1160704770B50021002378
:101EA0000F22C47804B32D4C246804F4E064C4F514
:101EB000E064210AC1F10403CA40447804FA03F142
:101EC0008478144021430901254C0678A1550478F3
:101ED00004F01F050124AC4005786D11AD0005F13B
:101EE000E025C5F8004109E0047804F01F0501244D
:101EF000AC401C4D0678761145F8264070BD1A4A54
:101F00000A400243154B1B1F1A60704739B1134A30
:101F1000121D12680243114B1B1D1A6006E00F4A86
:101F2000121D126882430D4B1B1D1A607047042856
:101F300008D14FF0E021096941F004014FF0E0229F
:101F4000116107E04FF0E021096921F004014FF031
:101F5000E0221161704700000000FA050CED00E07E
:101F600000E400E080E100E080FFFF1F10B50446C0
:101F7000CC48844208D10121042000F02DFB00212F
:101F8000042000F029FB46E0C748844208D1012123
:101F9000082000F021FB0021082000F01DFB3AE0A2
:101FA000C248844208D10121102000F015FB002115
:101FB000102000F011FB2EE0BD48844208D1012121
:101FC000202000F009FB0021202000F005FB22E08A
:101FD000B848844208D10121402000F0FDFA0021D8
:101FE000402000F0F9FA16E0B348844208D10121FC
:101FF000802000F0F1FA0021802000F0EDFA0AE0E4
:10200000AE48844207D10121801500F0E5FA002195
:10201000A01500F0E1FA10BD10B50121084600F04E
:10202000DBFA0021012000F0D7FA10BD2DE9F041C4
:10203000024600250026002000230024002791F8F6
:1020400003C00CF00F0591F803C00CF0100CBCF1AC
:10205000000F03D091F802C04CEA050591F800C0CA
:10206000BCF1000F31D0146800202BE04FF0010CC0
:102070000CFA00F3B1F800C00CEA03069E4220D12E
:1020800083004FF00F0C0CFA03F7BC4305FA03FC76
:102090004CEA040491F803C0BCF1280F06D14FF0BC
:1020A000010C0CFA00FCC2F814C00AE091F803C05D
:1020B000BCF1480F05D14FF0010C0CFA00FCC2F83E
:1020C00010C0401C0828D1D31460B1F800C0BCF186
:1020D000FF0F34DD546800202EE000F1080C4FF0B3
:1020E000010808FA0CF3B1F800C00CEA03069E429E
:1020F00021D183004FF00F0C0CFA03F7BC4305FA13
:1021000003FC4CEA040491F803C0BCF1280F05D18C
:1021100000F1080C08FA0CF8C2F8148091F803C01A
:10212000BCF1480F07D100F1080C4FF0010808FA84
:102130000CF8C2F81080401C0828CED35460BDE8CB
:10214000F0814FF6FF710180022181700421C1707E
:1021500070470246002093680B400BB1012000E05D
:10216000002070470146886880B270470246002010
:10217000D3680B400BB1012000E0002070470146FE
:10218000C86880B2704701617047416170470AB109
:10219000016100E041617047C16070474FF48032D7
:1021A0000A43826181618261826982697047024665
:1021B0000020434B18684FF68073184040EA021025
:1021C00008433F4B186070473E49C8617047F0B5FF
:1021D0000A46002300240021002500F00046B6F145
:1021E000004F02D1364EF16901E0354E7168C0F3FF
:1021F000034583B200F44016B6F5401F08D121F024
:1022000070612F4E766826F070662D4F7E6012E06A
:1022100000F48016B6F5801F06D1032606FA05F4F1
:10222000A14341F0706106E0460D360103FA06F65F
:10223000B14341F0706122B1460D360103FA06F652
:10224000314300F00046B6F1004F02D11C4EF1615F
:1022500001E01B4E7160F0BD30B500228B071C0FF2
:102260000F2303FA04F2164B08338C1053F8243072
:102270009343134C08348D1044F8253023468C10BA
:1022800053F824308C07240F00FA04F423430C4C39
:1022900008348D1044F8253030BD0A49DC3108601F
:1022A0007047000000080140000C01400010014090
:1022B0000014014000180140001C014000200140B2
:1022C0000000014000002042DF48006840F00100AB
:1022D000DD49086008464068DC490840DA49486042
:1022E00008460068DA490840D7490860084600688F
:1022F00020F4802008600846406820F4FE00486012
:102300004FF41F0088607047CF49096821F480317D
:10231000CD4A11601146096821F480211160B0F5A1
:10232000803F03D0B0F5802F0ED106E0C649096882
:1023300041F48031C44A116007E0C349096841F49F
:10234000A021C14A116000E000BF00BF704710B576
:1023500001460022002300204A11012A02D1BA4C72
:10236000236806E0022A02D1B74C236A01E0B64C8A
:10237000636A01F01F02012494401C400CB101204B
:1023800000E0002010BD38B500200090002400259A
:1023900000BF3120FFF7DBFF05460098401C00908E
:1023A0000098B0F5A06F01D0002DF2D03120FFF7DA
:1023B000CEFF08B1012400E00024204638BD0146CC
:1023C0000020A14A106820F0F80040EAC100106027
:1023D0007047A04908607047024600209A4B586831
:1023E00020F47C1042EA01031843974B5860704771
:1023F00098490866704701460020934A506820F0CB
:1024000003000843506070478F48406800F00C009C
:102410007047014600208C4A506820F0F0000843C5
:102420005060704701460020874A506820F4E06001
:1024300008435060704701460020834A506820F4EA
:10244000605040EAC1005060704729B17E4A527A1C
:1024500002437D4B5A7204E07B4A527A82437A4BA4
:102460005A7270477B49D831086070470146002096
:10247000754A506820F4404008435060704700217E
:10248000714A20321170704A82F82010012802D05F
:1024900004280AD104E001216B4A2032117005E0C2
:1024A0000521694A2032117000E000BF00BF70476B
:1024B0006949086070476449096A0143624A1162C8
:1024C0007047654944390860704730B500210022E3
:1024D000002400235C4D6D6805F00C0121B1042936
:1024E00005D0082923D105E05C4D056022E05B4D55
:1024F00005601FE0544D6D6805F47012524D6D6813
:1025000005F48034022505EB92421CB9544D554325
:1025100005600BE04C4D6D6805F400351DB1504D64
:102520005543056002E04D4D5543056002E04B4DBB
:10253000056000BF00BF444D6D6805F0F00109095A
:10254000484D6B5C0568DD4045603F4D6D6805F4A6
:10255000E061090A434D6B5C4568DD4085603A4D9A
:102560006D6805F46051C90A3E4D6B5C4568DD40FD
:10257000C560354D6D6805F44041890B3A4D6B5C83
:10258000C568B5FBF3F5056130BD29B12E4A526926
:1025900002432D4B5A6104E02B4A526982432A4B75
:1025A0005A61704729B1284A92690243264B9A61C1
:1025B00004E0254A92698243234B9A61704729B10E
:1025C000214AD2690243204BDA6104E01E4AD269F3
:1025D00082431D4BDA61704729B11B4AD26802431E
:1025E000194BDA6004E0184AD2688243164BDA606D
:1025F000704729B1144A12690243134B1A6104E06F
:10260000114A12698243104B1A61704712494039CE
:10261000086070470F49C86470470B49C87170471C
:102620000948406A40F08070074948627047014697
:102630000020054A92680A400AB1012000E000200B
:102640007047014988727047001002400000FFF88F
:10265000FFFFF6FE000042428004424200127A0070
:1026600000093D00140000202400002010B504469D
:10267000FE48844208D10121C014FFF7ADFF0021BC
:10268000E014FFF7A9FFC4E0B4F1804F08D10121A5
:102690000846FFF7AEFF00210120FFF7AAFFB8E0D0
:1026A000F348844208D101210220FFF7A2FF002154
:1026B0000220FFF79EFFACE0EE48844208D10121E2
:1026C0000420FFF796FF00210420FFF792FFA0E00F
:1026D000E948844208D101210820FFF78AFF002140
:1026E0000820FFF786FF94E0E448844208D10121E6
:1026F0001020FFF77EFF00211020FFF77AFF88E00F
:10270000DF48844208D101212020FFF772FF002119
:102710002020FFF76EFF7CE0DA48844208D10121D7
:102720004014FFF759FF00216014FFF755FF70E0D8
:10273000D548844209D10121C804FFF74DFF00218B
:102740004FF40020FFF748FF63E0D048844209D1EE
:1027500001210805FFF740FF00214FF48010FFF72B
:102760003BFF56E0CA48844209D101214805FFF7E2
:1027700033FF00214FF40010FFF72EFF49E0C5485A
:10278000844208D101214020FFF733FF002140207F
:10279000FFF72FFF3DE0C048844208D1012180208F
:1027A000FFF727FF00218020FFF723FF31E0BB4820
:1027B000844208D101218015FFF71BFF0021A015DD
:1027C000FFF717FF25E0B648844209D1012108042C
:1027D000FFF702FF00214FF48030FFF7FDFE18E005
:1027E000B048844209D101214804FFF7F5FE0021D9
:1027F0004FF40030FFF7F0FE0BE0AB48844208D105
:1028000001218804FFF7E8FE00214FF48020FFF744
:10281000E3FE10BD00220288944B98420ED0994BE3
:1028200098420BD0B0F1804F08D0914B984205D020
:10283000904B984202D0904B984204D14FF68F7340
:102840001A404B881A438D4B984207D08C4B9842C4
:1028500004D04FF6FF431A40CB881A4302808B887E
:1028600083850B880385814B98420BD0854B98421A
:1028700008D08B4B984205D08A4B984202D08A4BA5
:10288000984201D10B7A038601238382704770B589
:10289000002400220023058C4FF6FE763540058487
:1028A000028C8388048B4FF68F752C40B51E2C400C
:1028B0000D882C43751E2A400D892A434D882A43D2
:1028C0006A4DA8420BD06F4DA84208D0744DA84263
:1028D00005D0744DA84202D0734DA84213D14FF6D3
:1028E000F7752A404D892A434FF6FB752A408D889B
:1028F0002A434FF6FF652B404FF6FF552B408D893D
:102900002B43CD892B4383800483CD888586028425
:1029100070BD70B5002400220023058C4FF6EF76C1
:1029200035400584028C8388048B48F6FF752C4063
:102930004FF6FF452C400D884FF6FF7606EA052539
:102940002C434FF6DF752A400D8906EA05152A4308
:102950004D8806EA05152A43444DA84202D0494D48
:10296000A8421DD14FF67F752A404D894FF6FF765C
:1029700006EA05152A434FF6BF752A408D8806EAF8
:1029800005152A434FF6FF352B404FF2FF752B40BC
:102990008D8906EA85052B43CD8906EA85052B43FB
:1029A00083800483CD880587028470BD70B50024C0
:1029B00000220023058C4FF6FF6635400584028C0B
:1029C0008388848B4FF68F752C404FF6FC752C4016
:1029D0000D882C434FF6FF552A400D894FF6FF76A0
:1029E00006EA05252A434D8806EA05252A431F4D98
:1029F000A84202D0234DA8421DD14FF2FF752A40B4
:102A00004D894FF6FF7606EA05252A434FF6FF3536
:102A10002A408D8806EA05252A434EF6FF752B408D
:102A20004DF6FF752B408D8906EA05152B43CD89A0
:102A300006EA05152B4383808483CD88858702842D
:102A400070BD70B5002200230024058C4EF6FF7681
:102A500035400584038C8488828B48F6FF752A40B4
:102A60004FF6FF452A400D8820E00000002C014071
:102A70000004004000080040000C0040001000402E
:102A80000014004000340140004C0140005001405F
:102A90000054014000180040001C0040002000408D
:102AA0000040014000440140004801404FF6FF76DD
:102AB00006EA05252A434DF6FF752B400D8906EAE7
:102AC00005352B434D8806EA05352B43FA4DA842C0
:102AD00002D0FA4DA84208D14BF6FF752C408D89E3
:102AE0004FF6FF7606EA85152C4384808283CD88D5
:102AF000A0F84050038470BD828B4FF2FF331A4020
:102B00008283828B4FF6FF7303EA01231A43828389
:102B10007047F0B50C461546002200210026078CB0
:102B20004EF6FF7C07EA0C070784828B018C4FF678
:102B3000FF7707EA043640F6FF473A404FF6FF7743
:102B400007EA05273A434FF6FF7707EA03373A4388
:102B5000D94FB8420ED0D94FB8420BD0B0F1804F08
:102B600008D0D74FB84205D0D64FB84202D0D64F82
:102B7000B84206D14DF6FF77394046F480573943C5
:102B800005E047F6FF57394044F4805739438283C4
:102B90000184F0BD828B4FF6F3731A408283828BDF
:102BA0000A4382837047F0B50C4615460022002187
:102BB0000026078C4FF6FF6C07EA0C070784828B10
:102BC000018C4FF6FF7707EA04264FF60C773A4060
:102BD0004FF6FF7707EA03172F433A43B64FB84241
:102BE0000ED0B64FB8420BD0B0F1804F08D0B44FE2
:102BF000B84205D0B34FB84202D0B34FB84206D165
:102C00004FF6FF57394046F48077394305E04FF2DD
:102C1000FF57394044F48077394382830184F0BD03
:102C2000028B4FF2FF331A400283028B4FF6FF7381
:102C300003EA01231A4302837047F0B50C46154698
:102C4000002200210026078C4FF6EF7C07EA0C07D4
:102C50000784028B018C4FF6FF7707EA041640F6D3
:102C6000FF473A404FF6FF7707EA03373A434FF6FC
:102C7000FF7707EA05273A438F4FB8420ED08F4FB0
:102C8000B8420BD0B0F1804F08D08D4FB84205D07C
:102C90008C4FB84202D08C4FB84206D14FF6DF7746
:102CA000394046F01007394305E04FF65F77394069
:102CB00044F01007394302830184F0BD028B4FF6C4
:102CC000F3731A400283028B0A4302837047F0B504
:102CD0000C46154600220021068C4FF6FE773E403A
:102CE0000684028B018C4FF60C7632407E1C06EA7D
:102CF00003162E433243704EB0420ED06F4EB04298
:102D00000BD0B0F1804F08D06D4EB04205D06D4E63
:102D1000B04202D06C4EB04206D14FF6FD76314043
:102D200044F00106314305E04FF6F576314044F0BA
:102D30000106314302830184F0BD70B505460C469F
:102D40005D4885420ED05D4885420BD0B5F1804F7D
:102D500008D05B48854205D05A48854202D05A487F
:102D6000854200D100E000BF208850B92389A288A5
:102D700061882846FFF7ABFFE1882846FFF79EFFF2
:102D800025E0208804280AD12389A2886188284662
:102D9000FFF753FFE1882846FFF742FF17E020883E
:102DA00008280AD12389A28861882846FFF7FBFEFC
:102DB000E1882846FFF7EEFE09E02389A2886188B2
:102DC0002846FFF7A6FEE1882846FFF795FE70BD6E
:102DD0002DE9F04105460C4600260127608808B918
:102DE000022600E00026A088012801D1022700E089
:102DF00001272088A0B92389A28861882846FFF787
:102E000066FFE1882846FFF759FF23893A46314695
:102E10002846FFF712FFE1882846FFF701FF13E07D
:102E20002389A28861882846FFF707FFE1882846A2
:102E3000FFF7F6FE23893A4631462846FFF747FF5B
:102E4000E1882846FFF73AFFBDE8F0810A884B8801
:102E50001A438B881A43CB881A430B891A434B8930
:102E60001A438B891A43A0F8442070474FF6FF712C
:102E7000818000210180C180418001727047002162
:102E8000018041808180C180018141818181C18136
:102E90007047002101804180012181800021C18093
:102EA000018170470021018041808180C1800181C2
:102EB0004181818170470000002C014000340140B5
:102EC0000004004000080040000C004021B10288CE
:102ED00042F00102028004E002884FF6FE731A40BD
:102EE0000280704731B1B0F8442042F40042A0F8AB
:102EF000442005E0B0F84420C2F30E02A0F84420BC
:102F000070471AB183890B43838102E083898B4325
:102F1000838170478182704741EA0203A0F84830FC
:102F200070471AB183890B43838102E083898B4305
:102F30008381704701894FF6F87211400181704713
:102F40000A46002101894FF68F7319401143018110
:102F5000704730B504460D4629462046FFF7F0FF7E
:102F6000208940F00700208130BD2DE9F041044662
:102F70000D4616461F46602D06D13B4601223146BE
:102F80002046FFF75AFE05E03B4601223146204627
:102F9000FFF79DFE29462046FFF7D2FF208940F02B
:102FA00007002081BDE8F08130B50C460021018981
:102FB000C9B24FF6FF7505EA03251543254329439A
:102FC000018130BD2DE9F04105460E461746984671
:102FD000002443463A4631462846FFF7E5FF2C8950
:102FE0004FF6F870044044F007044FF68F70044029
:102FF00044F070042C81BDE8F081F0B504460D4624
:1030000016461F463B46324629462046FFF7CCFF70
:10301000208940F480402081F0BD01858282704784
:103020000A46002101884FF68F7319401143018031
:103030007047F0B50C4615461E46002100220023BD
:103040000189028B038C4FF6F877394021434FF604
:10305000FC473A4040F201173A434FF6DD773B40D8
:103060004FF6FF7707EA06172F433B4301810283A0
:103070000384F0BD0A460021018B4FF68F7319407F
:103080001143018370470A460021018B48F6FF7304
:1030900019404FF6FF7303EA022319430183704777
:1030A0000A460021818B4FF68F73194011438183AB
:1030B00070470A460021818B48F6FF7319404FF68E
:1030C000FF7303EA022319438183704721B1028809
:1030D00042F08002028004E002884FF67F731A40BB
:1030E0000280704721B1828842F00402828004E0AD
:1030F00082884FF6FB731A408280704721B1828824
:1031000042F00802828004E082884FF6F7731A408A
:103110008280704721B1828842F00102828004E0FF
:1031200082884FF6FE731A40828070470A4600215B
:10313000018B4FF6F77319401143018370470A461C
:103140000021018B4FF2FF7319404FF6FF7303EA22
:1031500002231943018370470A460021818B4FF6F1
:10316000F77319401143818370470A460021818B10
:103170004FF2FF7319404FF6FF7303EA022319431E
:10318000818370470A460021018B4FF6FB7319407B
:103190001143018370470A460021018B4FF6FF332C
:1031A00019404FF6FF7303EA022319430183704766
:1031B0000A460021818B4FF6FB731940114381832E
:1031C00070470A460021818B4FF6FF3319404FF6B6
:1031D000FF7303EA02231943818370470A460021E3
:1031E000018B4FF67F7319401143018370470A46E4
:1031F0000021018BC1F30E014FF6FF7303EA022396
:103200001943018370470A460021818B4FF67F7373
:1032100019401143818370470A460021818BC1F315
:103220000E014FF6FF7303EA0223194381837047AF
:103230000A460021018C4FF6FD73194011430184A9
:1032400070470A460021018C4FF6F773194011436D
:10325000018470470A460021018C4FF6DF73194044
:103260004FF6FF7303EA02131943018470470A46BD
:103270000021018C4FF67F7319404FF6FF7303EA6C
:1032800002131943018470470A460021018C4FF64E
:10329000FF5319404FF6FF7303EA022319430184D9
:1032A00070470A460021018C4FF2FF7319404FF618
:1032B000FF7303EA02231943018470470A46002181
:1032C000018C4DF6FF7319404FF6FF7303EA02338A
:1032D00019430184704730B5002301248C40A3B208
:1032E000048C9C430484048C02FA01F5ADB22C4397
:1032F000048430BD30B5002304248C40A3B2048C78
:103300009C430484048C02FA01F5ADB22C4304847E
:1033100030BD70B503460020002418461830012542
:103320008D40ACB21D8CA5431D8409B1082909D17B
:1033300000EB6100056825F0700505600568154320
:1033400005600EE00D1FC5F34E052844056825F401
:10335000E045056005684FF6FF7606EA022635432C
:10336000056070BD21B1028842F00202028004E0D3
:1033700002884FF6FD731A400280704721B102881F
:1033800042F00402028004E002884FF6FB731A4008
:103390000280704721B1828842F08002828004E07E
:1033A00082884FF67F731A408280704702884FF6FA
:1033B000F7731A40028002880A43028070478288AD
:1033C0004FF68F731A40828082880A43828070474A
:1033D00002894FF6F8731A40028102890A4302817A
:1033E000704702894FF67F731A40028102890A43AF
:1033F000028170478184704781857047818670475C
:103400000187704781877047A0F840107047028895
:103410004FF6FF431A40028002880A430280704739
:103420000146888E70470146088F70470146888F95
:1034300070470146B1F8400070470146888C7047DC
:103440000146088D704702460020138A0B400BB1DD
:10345000012000E000207047CA430282704730B567
:103460000246002000230024158A05EA01039589FD
:1034700005EA010413B10CB1012000E0002030BDC9
:10348000CA4302827047000010B50446FB488442DC
:1034900009D101218803FFF79FF800214FF48040F4
:1034A000FFF79AF832E0F648844209D10121480436
:1034B000FFF79FF800214FF40030FFF79AF825E05E
:1034C000F048844209D101218804FFF792F80021D5
:1034D0004FF48020FFF78DF818E0EB48844209D1C3
:1034E0000121C804FFF785F800214FF40020FFF701
:1034F00080F80BE0E548844208D101210805FFF778
:1035000078F800214FF48010FFF773F810BD2DE913
:10351000F04786B005460E460024A24600BFA146ED
:103520000027B08900B100BF2F462C8A4CF6FF70EF
:103530000440F08804432C82AC894EF6F31004401A
:10354000B08831890843718908430443AC81AC8A4F
:103550004FF6FF400440B0890443AC8201A8FEF757
:10356000B4FFC648874202D1DDF810A001E0DDF8C3
:103570000CA0A88900F4004040B10AEBCA0000EB9F
:103580000A1031684900B0FBF1F807E00AEBCA0005
:1035900000EB0A1031688900B0FBF1F86420B8FB39
:1035A000F0F004012009642101FB1089A88900F4CE
:1035B000004040B1322000EBC900B0FBF1F000F058
:1035C0000700044308E0322000EB09106421B0FB3F
:1035D000F1F000F00F0004432C8106B0BDE8F08745
:1035E0004FF41651016000218180C18001810C21BE
:1035F000418100218181704710B502460020108A68
:103600004FF2FF0318400B884C8823438C882343D8
:10361000CC8823431843108210BD002101804180D3
:103620008180C180704721B1828942F40052828139
:1036300004E082894DF6FF731A4082817047F0B52D
:103640000346002400260025002040F66A17B942F0
:1036500000D100BF1846C1F3421401F01F06012734
:1036600007FA06F5012C01D10C3004E0022C01D13F
:10367000103000E014301AB107682F43076002E0F1
:103680000768AF430760F0BD1AB1838A0B4383829A
:1036900002E0838A8B4383827047028A4FF6F0737D
:1036A0001A400282028A0A430282704782894FF2DC
:1036B000FF731A40828182890A438281704721B157
:1036C000828942F00202828104E082894FF6FD7312
:1036D0001A4082817047028A4FF6DF731A400282D5
:1036E000028A0A430282704721B1028A42F4804270
:1036F000028204E0028A4BF6FF731A40028270478E
:10370000C1F308028280704701468888C0F3080030
:103710007047818941F0010181817047028BD2B2EB
:103720000283028B42EA012202837047028B02F479
:103730007F420283028B0A430283704721B1828A4F
:1037400042F02002828204E0828A4FF6DF731A4040
:103750008282704721B1828A42F01002828204E0A4
:10376000828A4FF6EF731A408282704721B1828AB3
:1037700042F00802828204E0828A4FF6F7731A4010
:103780008282704721B1828942F40042828103E043
:103790008289C2F30E028281704721B1828A42F48B
:1037A0000062828204E0828A4FF2FF731A408282B2
:1037B0007047828A4FF6FB731A408282828A0A43DC
:1037C0008282704721B1828A42F00202828204E042
:1037D000828A4FF6FD731A408282704702460020AB
:1037E000B1F5007F00D100BF13880B400BB1012061
:1037F00000E00020704701F40072B2F5007F00D1B4
:1038000000BFCA430280704770B5024600240023FF
:103810000025002040F66A16B14200D100BFC1F376
:10382000421501F01F03012606FA03F3012D02D110
:103830009689334006E0022D02D1168A334001E01A
:10384000968A33400C12012606FA04F41688344096
:1038500013B10CB1012000E0002070BD10B50022B2
:10386000002340F66A14A14200D100BF0A120124CD
:103870009440A3B2DC43048010BD00000038014036
:103880000044004000480040004C00400050004010
:103890000CB50020019000906C48006840F4803026
:1038A0006A49086000BF6948006800F40030009071
:1038B0000198401C0190009818B90198B0F5A06FCC
:1038C000F1D16248006800F4003010B1012000908E
:1038D00001E0002000900098012843D15C48006876
:1038E00040F010005A4908600846006820F00300C4
:1038F00008600846006840F00200086053484068CD
:10390000524948600846406848600846406840F4AC
:10391000806048600846406820F47C104860084693
:10392000406840F4E81048600846006840F0807045
:10393000086000BF4548006800F000700028F9D01A
:103940004248406820F0030040494860084640680B
:1039500040F00200486000BF3C48406800F00C00A6
:103960000828F9D10CBD10B5FFF792FF10BD10B5B6
:103970003648006840F00100344908600846406855
:1039800034490840314948600846006832490840D7
:103990002E4908600846006820F480200860084628
:1039A000406820F4FE0048604FF41F008860FFF775
:1039B000DAFF4FF000602949086010BD10B5002102
:1039C00000200022214B5B6803F00C0121B1042987
:1039D00006D0082928D107E0214B224C236027E09C
:1039E0001F4B204C236023E0184B5B6803F47010DE
:1039F000164B5B6803F48032022303EB904022B93C
:103A0000194B4343174C23600DE0104B5B6803F4E4
:103A1000003323B1144B4343124C236003E0104B9B
:103A20004343104C236003E00D4B0E4C236000BF5A
:103A300000BF064B5B68C3F303130C4CE15C094BFE
:103A40001B68CB40074C236010BD000000100240F3
:103A5000002002400000FFF8FFFFF6FE08ED00E046
:103A600000127A002800002000093D002C000020F0
:103A70000948804709480047FEE7FEE7FEE7FEE702
:103A8000FEE7FEE7FEE7FEE7FEE7FEE7044805493E
:103A9000054A064B704700006F390008ED0000082A
:103AA00030020020300800203004002030040020C4
:103AB000014A00F0D3B800003C00002030B50546B4
:103AC0000B462A4613F8014B12F8010B08B1A0422D
:103AD000F8D01CB1002802D06D1CF1E7284630BD9B
:103AE00040EA0103024630B59B0710D14FF0013484
:103AF00000E008C208C91D1B9D4315EAC41FF8D089
:103B000013F0FF0102F8011B0DD01B0AF8E711F8B2
:103B1000013B002B02F8013B05D011F8013B002BC3
:103B200002F8013BF3D130BD10B5431C02E010F8A0
:103B3000011B71B18107FAD14FF0013202C88C1A12
:103B40008C4314EAC211F9D0C01A0A0603D0C01E71
:103B500010BDC01A10BD0A0401D0801E10BD09029C
:103B6000FCD0401E10BD032A40F2308010F0030C40
:103B700000F0158011F8013BBCF1020F624498BFC0
:103B800011F801CB00F8013B38BF11F8013BA2F15D
:103B9000040298BF00F801CB38BF00F8013B11F0D8
:103BA000030300F02580083AC0F0088051F8043B78
:103BB000083A51F804CBA0E80810F5E7121D5CBFE5
:103BC00051F8043B40F8043BAFF30080D20724BF18
:103BD00011F8013B11F801CB48BF11F8012B24BFAC
:103BE00000F8013B00F801CB48BF00F8012B7047FB
:103BF00010B5203AC0F00B80B1E81850203AA0E888
:103C00001850B1E81850A0E81850BFF4F5AF5FEABB
:103C1000027C24BFB1E81850A0E8185044BF18C96E
:103C200018C0BDE810405FEA827C24BF51F8043B15
:103C300040F8043B08BF7047D20728BF31F8023B69
:103C400048BF11F8012B28BF20F8023B48BF00F8FD
:103C5000012B704770477047704700002DE9F04115
:103C600015460E46040002D12C6804B90BA4204668
:103C700000F026F80444207870B1274631463846D3
:103C800000F00EF80444207810B1002004F8010B75
:103C900038462C60BDE8F0810027F9E700000000FD
:103CA00030B503461D781DB10A4603E0AC4201D190
:103CB000181A30BD12F8014B002CF7D15B1CF1E74C
:103CC00030B503461D783DB10A4612F8014B1CB1D0
:103CD000AC42FAD15B1CF5E7181A30BD754600F00E
:103CE0002BF8AE4605006946534620F0070085468E
:103CF00018B020B5FFF7CAFEBDE820404FF000061F
:103D00004FF000074FF000084FF0000B21F00701C3
:103D1000AC46ACE8C009ACE8C009ACE8C009ACE806
:103D2000C0098D46704710B50446AFF300802046A9
:103D3000BDE81040FCF721BA00487047D0010020D0
:103D400001491820ABBEFEE72600020070470000C4
:103D5000C9E8D6C3B2CECAFDA3BAC9E8D6C322C445
:103D6000A3CABD222C224950222CB6CBBFDA2BBBD2
:103D7000D8B3B50D0AC8E7A3BAC9E8D6C3225443DD
:103D800050222C223132352E38392E31382E373907
:103D9000222C31323334350D0A00000040404040BF
:103DA0004040404040404040404040404040404013
:103DB0004040404040B6CCD0C5B2E2CAD4404040BA
:103DC00040404040404040404040404040404040F3
:103DD00040404040404040404040404040404040E3
:103DE00040404040404040400D0A0000B7A2CBCDCB
:103DF000B6CCD0C5A3BAC7EBB0B4D2AAC7F3CAE455
:103E0000C8EBB5E7BBB02BC4DAC8DD28B7C7D6D03E
:103E1000CEC429A3ACD2D4BBD8B3B5BDE1CAF83A5D
:103E2000C8E7313337787878782B6E6972656E2DF4
:103E3000656C656374726F6E0D0A0000C9E8D6C3C5
:103E4000D6D0D0C4BAC5A3BAC8E7A3BAC9E8D6C306
:103E50002B38363133383030373536353030A3AC47
:103E6000B1D8D0E8C9E8D6C3BAC3D6D0D0C4BAC591
:103E7000B2C5C4DCB7A2CBCDB6CCD0C50D0A00000C
:103E8000A03E0008000000204000000028010008BB
:103E9000E03E000840000020F00700004401000858
:103EA0000000000000000000000000000100000011
:103EB00000000000000000000102030401020304EE
:103EC000060708090204060800A24A0400000000D0
:103ED00000000000010203040607080900000000BA
:04000005080000ED02
:00000001FF
