:1000460041542B43495053544152543D2255445038
:10005600222C226E6972656E656C65632E6F69630C
:10006600702E6E6574222C36303030004750525355
:10007600C4A3BFE947505253B2E2CAD4B3CCD0F2BC
:100086000D0A0047505253C4A3BFE9D4DAD7A2B22F
:10009600E1CDF8C2E70D0A0047505253C4A3BFE9A9
:1000A600D7A2B2E1B3C9B9A60D0A0047505253C44C
:1000B600A3BFE9BFAACABCC1ACBDD3B7FECEF1C6C9
:1000C600F70D0A00C1ACBDD3B3C9B9A60D0A0041EC
:1000D600542B435245473F00D7A2B2E1D6D02E2E2D
:1000E6002E2E2E0041544530004F4B0041542B43D9
:1000F6004950434C4F53453D310041542B434950E1
:10010600534855540053485554204F4B0041542BE7
:100116004347434C4153533D2242220041542B4313
:100126004744434F4E543D312C224950222C224302
:100136004D4E4554220041542B43474154543D31C2
:100146000041542B434950435347503D312C2243E1
:100156004D4E4554220041542B4349504845414495
:100166003D31002B495044006F6E6C6564006F662C
:10017600666C656400CAD5B5BDD0C2D0C5CFA2A392
:10018600BA0D0A0041542B43495053454E44003E94
:0E019600004F4B1A000053454E44204F4B00C3
:10065200030DFF0046010900010C00011000020A0F
:0506620000000108008A
:1004FC001206C612002612067B120668D2AF7BFFCC
:10050C007A0079721205B87BFF7A0079891205B8E6
:10051C0012049C7BFF7A00799E1205B87BFF7A004F
:10052C0079B11205B812000E1201A47BFF7A007982
:10053C00CA1205B81203583001FA12058EC2018096
:01054C00F3BB
:030023000206BB17
:0B06BB00309802C298309902C29932B8
:0300430002054D66
:10054D00C0E0C083C082C0D053AFFEE59A30E01D3D
:10055D00539AFE743C250CF582E43400F583E59B3B
:10056D00F0050CE50CD394C84003750C00E59A30EA
:10057D00E103539AFD43AF01D0D0D082D083D0E0B8
:01058D00323B
:03000B0002043AB2
:0D043A00C0E0C0F0C0D075D000C000C00709
:10044700C28C0508E508C394324005750800B2A1BF
:10045700050BE50B7002050AD394F4E50A940140F5
:1004670008750A00750B00D2013000020509E51076
:1004770075F032A4FFD3E5099FE5F06480F8748036
:0A048700984005C200750900D28CF0
:0B049100D007D000D0D0D0F0D0E03277
:0B06C60053B1C343B23CC2B3C2A12237
:10066800538E7F5389F0E4F58A758C70C28DD28CD5
:03067800D2A922E2
:0F069F00E4FF7EC890003CE4F0A3DEFCE4F50C21
:0106AE002229
:10049C00E4F52112069FE521705512069F7BFF7A29
:1004AC000079D51205DD7F0D12068E7F0A12068E9D
:1004BC007F887E1312063BE4FF743C2FF582E434F4
:1004CC0000F583E0B43A1974402FF582E43400F55A
:1004DC0083E0FE64316004EEB435057521018004BF
:0F04EC000FBFC8D57BFF7A0079DE1205B880A755
:0104FB0022DE
:100602008B2C8A2D892E8B328A3389347B017A0096
:10061200793C1202D6E94A4B60037F01227F002215
:0603D2008B218A22892321
:1003D8008B298A2A892B12069FE4F528E528704F75
:1003E800AB24AA25A926120602EF703C2000ED8551
:1003F8002921852A22852B23AB21AA22A92312068B
:1004080022FF601012068E74012523F523E435229D
:10041800F52280E47F0D12068E7F0A12068EE4F51F
:1004280009852710D20080B4752801C20080AD026A
:02043800069F1D
:10000E007524FF7525007526EF7527037BFF7A0093
:05001E0079EA0203D2A3
:1001A4007BFF7A0079F21205DD7524FF7525017550
:1001B400260B7527027BFF7A0179001203D275247E
:1001C400FF7525007526EF7527027BFF7A017913E9
:1001D4001203D27524FF7525007526EF7527027B5F
:1001E400FF7A0179221203D27524FF752500752642
:1001F400EF7527027BFF7A01793C1203D27524FF45
:100204007525007526EF7527027BFF7A0179471261
:1002140003D27524FF7525007526EF7527027BFF31
:100224007A01795C1203D27524FF7525007526EFD7
:10023400752705AB0DAA0EA90F1203D27F647E00A9
:0602440012063B02069FBA
:100358007532FF7533017534697B017A00793C1277
:1003680002D6E94A4B6062E4F50AF50BC2017F64E4
:10037800FE12063B7532FF75330175346E7B017AC8
:1003880000793C1202D6E94A4B6004C2B380197561
:1003980032FF7533017534747B017A00793C12029F
:1003A800D6E94A4B6002D2B37BFF7A01797B12050A
:1003B800B87B017A00793C1205B87F0D1206AF7F31
:0A03C8000A1206AF12069FD20122AE
:10058E007524FF7525017526957527027BFF7A0167
:10059E00798A1203D27524FF75250175269C75275D
:0A05AE00087BFF7A0179970203D25F
:10063B007DA57C06ED1D70011C144C70F7EF1F702F
:06064B00011E144E70EACE
:010651002286
:10002600759850438E40538EFE53890F758BD0754D
:090036008DFFC2ABD28ED2AC22C8
:10067B00759A50438E0475D7D075D6FF438E1043B1
:03068B00AF01229A
:0C06AF00C2AC8F993099FDC299D2AC22E8
:1005B8008B228A238924AB22AA23A924120622602B
:1005C800130524E5247002052314F9120622FF12EC
:0505D80006AF80E222E5
:10068E0053AFFE8F9BE59A30E1FB539AFD75AF0198
:01069E002239
:1005DD008B228A238924AB22AA23A9241206226006
:1005ED00130524E5247002052314F9120622FF12C7
:0505FD00068E80E222E1
:0300000002024AAF
:0C024A00787FE4F6D8FD75813A0202913D
:10062200BB010689828A83E0225002E722BBFE02D6
:09063200E32289828A83E4932209
:1002D6008B2F8A308931AB32AA33A93412062260B9
:1002E60063AB2FAA30A931120622605F85323585AD
:1002F60033368534378B388A39893AAB35AA36A9ED
:1003060037120622FF6023AB38AA39A93A12062211
:100316006F7017042537F537E43536F53674012541
:100326003AF53AE43539F53980D1AB35AA36A937ED
:100336001206227002800D74012531F531E4353044
:10034600F530809DAB2FAA30A931227B007A007947
:02035600002283
:100256000204FCE493A3F8E493A34003F68001F2BE
:1002660008DFF48029E493A3F85407240CC8C333A9
:10027600C4540F4420C8834004F456800146F6DF78
:10028600E4800B0102040810204080900652E47EB0
:10029600019360BCA3FF543F30E509541FFEE4936D
:1002A600A360010ECF54C025E060A840B8E493A334
:1002B600FAE493A3F8E493A3C8C582C8CAC583CA5F
:1002C600F0A3C8C582C8CAC583CADFE9DEE780BE17
:010667000092
:00000001FF
