:03000000020120DA
:0C012000787FE4F6D8FD75812002000E07
:10000E0075890175B104758CFF758A9CD2AFD2A922
:10001E00D28CD2A8D288D2B0D2B17E05E4FD300007
:10002E00FD30B2FDE4F50AC2A820B2FDE50AD39474
:10003E0023500302011BE50A942D400302011BE429
:10004E00F50A30B2FDE50AD39423500302011BE5F5
:10005E000A942D400302011BE4F50A20B2FDE50AC5
:10006E00D394054009E50A940F5003E4F508E50A18
:10007E00D3940F4009E50A9419500375080430B261
:10008E00FDE4F50A20B2FDE50AD394054008E50A21
:10009E00940F5002E4F9E50AD3940F4008E50A9450
:1000AE00195002790230B2FDE4F50A20B2FDE50ADC
:1000BE00D394054008E50A940F5002E4FFE50AD3F5
:1000CE00940F4008E50A941950027F0130B2FDE406
:1000DE00F50AE508292FFE0DBD0102F509ED6402B2
:1000EE00702BFDE5096E7025EE1460131460161466
:1000FE00601514601424047014C2B0D2B1800ED2F4
:10010E00B0C2B1800880028000D2B0D2B1D2A802B3
:02011E00002CB3
:03000300020006F2
:03000600D20032F3
:03000B0002012CC3
:0B012C00758CFF758A9C050AC28D329D
:00000001FF
