:040000000C94370025
:14005400CCCCCCCCC0CFA4B0999282F88090004C0C4404042C
:05006800CCCCCCCC580B
:14006E00CFE5D4E0CDBFDEBFC051D0400AEA08830024E9E759
:14008200F0E010E0EE37F10711F00192FBCF0083E4E5F0E013
:14009600A0E6B0E010E0ED36F10721F0C89531960D92F9CF99
:1400AA000E941801FFCF4A935A9309C04427552702C04F5FCF
:1400BE005F4F4035E0E05E07D0F3180101501040222091F79F
:1400D200332081F759914991089580E58DB908950FB9779BCC
:1400E600FECF0FB10895C49AC798C298C3989398C19A9498B8
:1400FA00C09808954A935A93C49801E010E0D3DF442709C020
:14010E008EE690E0E42FFF27E80FF91F0081E2DF43954B301C
:14012200A8F3C49A5991499108950E9478015801C49801E0BE
:1401360010E0BBDF00E2D2DF442707C0E42FFF27EA0DFB1D1E
:14014A000081CADF43954430B8F3C49A01E010E0AADFC4986C
:14015E0002E2C0DF442709C080E690E0E42FFF27E80FF91FB8
:140172000081B6DF43954430A8F3C49A949A01E010E095DFAB
:1401860094980C947D019498C09A02E010E08DDF0895C09862
:14019A00949A08EE13E087DF08954A935A939498C49801E004
:1401AE0010E07FDF04E296DF44270AC0002792DF8AE790E0E6
:1401C200E42FFF27E80FF91F008343954430A0F3C49A02E03F
:1401D60010E06BDF949A599149910895DADFDFDF0AE010E0FB
:1401EA0062DF80917A00893239F42090650025BADC98DB9A70
:1401FE00DA9AD99A80917A00803339F42090660025BADC9A30
:14021200DB98DA9AD99A80917A00813339F42090670025BA1C
:14022600DC9ADB9ADA98D99A0895EF97219782EF81BB83EBFE
:14023A0087BB8EE18ABB8FEF84BB22242BBA8FEB85BB959AE9
:14024E00979A45DF4CDF54DF48C0C4DFCD990FC0CD9BFECFD4
:1402620089E280937A0081E0809379002090650025BADC983B
:14027600DB9ADA9AD99ACE990FC0CE9BFECF80E380937A00BC
:14028A0081E0809379002090660025BADC9ADB98DA9AD99AAE
:14029E00CF990FC0CF9BFECF81E380937A0083E080937900FE
:1402B2002090670025BADC9ADB9ADA98D99A20907900222007
:1402C60071F022242092790097985DDF0AE710E02ADF08EC09
:1402DA0010E0E9DE222420927A00959A979AB7CFEF962196C5
:1402EE0008955A934A93BA92AA920895A990B990499159912A
:0203020008955C
:00000001FF
