:03000000020003F8
:0C000300787FE4F6D8FD7581110200C082
:1000E800E4FDFCC3ED9FEC9E5015E4FBFA0BBB004E
:0F00F800010AEB64704A70F50DBD00010C80E445
:0101070022D5
:10010800AD071FED600CE4FEEEC3940C50F2000E38
:0201180080F66F
:01011A0022C2
:10009200758920E4F587759850EF14600C14601090
:1000A20014600D24037010800E758DF9758BF92282
:0E00B200758DFD758BFD22758DF3758BF32218
:0C011B00C2AF8F993099FDC299D2AF227B
:03001300020016D2
:07001600C0E0C0D075D0006E
:10001D00751100C2AA7F0F12010830B304D2AA8055
:10002D005F30B3FDE4FC75100020B3FD30B3FD303F
:10003D00B3127F011201080511E511C3941E40EFA3
:10004D00D2AA803C74092CF8C000E6FFC313D0007F
:10005D00F6E511C39408400874092CF8E64480F6BF
:10006D007511000510E510C3940840BD0CBC04B615
:10007D00E50CF4650B6004D2AA8005D2AA750801BF
:05008D00D0D0D0E032EC
:1000C0007F327E001200E8C2AFD28ED2ACD28AD28A
:1000D000AAD2AFD2B3E4FF120092E50860FCE4F5C7
:0800E00008AF0B12011B80F2B6
:00000001FF
