:0300000002046F88
:0C046F00787FE4F6D8FD75813D0204B6EC
:100718007DA57C06ED1D70011C144C70F7EF1F7051
:06072800011E144E70EAF0
:01072E0022A8
:10027A004E6972656E2D656C656320426C75657496
:10028A006F6F7468204C454420636F6E74726F6C94
:10029A000D0A1A0053494D383038C4A3BFE9C0B615
:1002AA00D1C0B2E2CAD4B3CCD0F20D0A00C7EBB4C3
:1002BA00F2BFAACAD6BBFAC0B6D1C0B4AEBFDAD6AC
:1002CA00FACAD60D0A0053494D383038C4A3BFE9DB
:1002DA00C1ACBDD3D6D00D0A0041542B4254504F65
:1002EA005745523D310D0A0041540041542B4254A6
:1002FA00554E504149523D300D0A0053494D383050
:10030A0038C4A3BFE9BFAACABCCAD5CBF7C0B6D105
:10031A00C0C9E8B1B82CC7EBC8B7C8CFCAD6BBFAB0
:10032A00C0B6D1C0B4A6D3DABFC9B1BBB7A2CFD6C3
:10033A000D0A00CAD5CBF7C9E8B1B8D6D02E2E2EF1
:10034A002E2E2E2E2E2E2E2E2E0D0A0041542B42EC
:10035A00545343414E3D312C31300D0A002B425447
:10036A005343414E3A2031002B42545343414E3AB3
:10037A00203000C1ACBDD3B5DAD2BBB8F6C9E8B1FA
:10038A00B82E2E2E2E2E2E2E2E2E2E2E2E0D0A006C
:10039A0041542B4254504149523D302C310D0A00F0
:1003AA002B425450414952494E473A0041542B423C
:1003BA0054504149523D312C310D0A002B425450C0
:1003CA004149523A002B4254504149523A20310095
:1003DA0053494D383038C4A3BFE9C0B6D1C0C6A509
:1003EA00C5E4B3C9B9A60D0A0041542B4254474586
:1003FA005450524F463D310D0A004254474554501D
:10040A00524F463A20340041542B4254434F4E4EE9
:10041A004543543D312C340D0A004F4B0053494D8E
:10042A00383038C4A3BFE9C0B6D1C0BDA8C1A253F1
:10043A005050B7FECEF1B3C9B9A60D0A00444154D3
:10044A00413A000D0A002C00BDD3CAD5B5BDB5C4CA
:10045A00C4DAC8DD3A0041542B4254535050534534
:05046A004E44003E00BD
:10072F000313FF027A02090000010C0001160001F9
:02073F000800B0
:1000460012078D12002612074212000ED2AF7BFF56
:100056007A02799E1206D37BFF7A0279B71206D30B
:100066007BFF7A0279D01206D37527FF75280275B1
:1000760029F2752A027BFF7A0279E312057D7F64F5
:100086007E001207187527FF7528027529F2752A52
:10009600027BFF7A0279F512057D7BFF7A037905EB
:1000A6001206D37BFF7A03793D1206D37527FF75B7
:1000B6002803752967752A0B7BFF7A037956120583
:1000C6007D7535FF7536037537727B017A00793C8D
:1000D6001204FBE94A4B60CB7BFF7A03797D12065B
:1000E600D37527FF7528037529AA752A037BFF7A1E
:1000F60003799A12057D7FC87E001207187527FFBF
:100106007528037529C6752A237BFF7A0379B612EB
:10011600057D7F647E001207187535FF75360375F9
:1001260037CF7B017A00793C1204FBE94A4B60B178
:100136007BFF7A0379DA1206D37BFF7A0279B7124C
:1001460006D37527FF752804752904752A057BFFD4
:100156007A0379F312057D7527FF7528047529241E
:10016600752A027BFF7A04791112057D7BFF7A04DA
:1001760079271206D302023A7535FF7536047537AC
:10018600477B017A00793C1204FB8B0D8A0E890F9E
:10019600E94A4B60047F0180027F00EF7003020290
:1001A600407535FF75360475374DAB0DAA0EA90F90
:1001B6001204FB8B108A118912E94A4B60047F01F5
:0701C60080027F00EF60B131
:1001CD00AB10AA11A912E41206347535FF75360469
:1001DD00753750AB0DAA0EA90F1204FB8B218A2285
:1001ED008923E92401F9E43AFA7535FF753604756A
:1001FD0037501204FB8B0D8A0E890F7BFF7A047921
:10020D00521206D3AB0DE50F2401F9E4350EFA12A7
:10021D0006D37F0D1207767F0A120776AB0DAA0E55
:10022D00A90F900004120607B4B102B2B31207660B
:10023D0002017EE50BD39464500302017E7527FF06
:10024D0075280475296D752A017BFF7A0479601272
:10025D00057D7527FF752804752924752A01AB13B3
:0D026D00AA14A91512057DE4F50B02017E0F
:030023000207824F
:0B078200309802C298309902C29932F0
:0300430002069220
:10069200C0E0C083C082C0D053AFFEE59A30E01DF7
:1006A200539AFE743C250CF582E43400F583E59BF5
:1006B200F0050CE50CD394C84003750C00E59A30A4
:1006C200E103539AFD43AF01D0D0D082D083D0E072
:0106D20032F5
:03000B00020646A4
:0B064600C0E0C0F0C0D075D000C007BD
:10065100C28C0508E508C394324005750800B2A1B3
:10066100300008050AE50A70020509E51675F03241
:10067100A4FFD3E50A9FE50995F04008C20075097A
:0806810000750A00050BD28C84
:09068900D007D0D0D0F0D0E0324F
:0B078D0053B1C343B23CC2B3C2A1226F
:10000E00538E7F5389F0E4F58A758C70C28DD28C35
:03001E00D2A92242
:0F076600E4FF7EC890003CE4F0A3DEFCE4F50C59
:010775002261
:1006F8008B2F8A3089318B358A3689377B017A008E
:10070800793C1204FBE94A4B60037F01227F0022F7
:06057D008B248A2589266B
:100583008B2C8A2D892E120766E4F52BE52B705AE6
:10059300AB27AA28A9291206F8EF70472000ED7BA4
:1005A300017A00793C1206D3852C24852D25852ECE
:1005B30026AB24AA25A9261205EEFF6010120755C3
:1005C30074012526F526E43525F52580E47F0D12F3
:1005D30007557F0A120755E4F509F50A852A16D24D
:0A05E3000080A9752B01C20080A260
:0105ED0022EB
:10002600759850438E40538EFE53890F758BD0754D
:090036008DFFC2ABD28ED2AC22C8
:10074200759A50438E0475D7D075D6FF438E1043E9
:03075200AF0122D2
:0C077600C2AC8F993099FDC299D2AC2220
:1006D3008B2F8A308931AB2FAA30A9311205EE60F6
:1006E300130531E5317002053014F91205EEFF12DE
:0506F300077680E22201
:1007550053AFFE8F9BE59A30E1FB539AFD75AF01D0
:010765002271
:10047B00020046E493A3F8E493A34003F68001F251
:10048B0008DFF48029E493A3F85407240CC8C33382
:10049B00C4540F4420C8834004F456800146F6DF51
:1004AB00E4800B010204081020408090072FE47EAB
:1004BB00019360BCA3FF543F30E509541FFEE49346
:1004CB00A360010ECF54C025E060A840B8E493A30D
:1004DB00FAE493A3F8E493A3C8C582C8CAC583CA38
:1004EB00F0A3C8C582C8CAC583CADFE9DEE780BEF0
:0107410000B7
:1005EE00BB010689828A83E0225002E722BBFE020B
:0905FE00E32289828A83E493223E
:10060700BB010CE58229F582E5833AF583E02250A8
:1006170006E92582F8E622BBFE06E92582F8E222F2
:0D062700E58229F582E5833AF583E493220C
:10063400BB010689828A83F0225002F722BBFE01A5
:02064400F3229F
:1004FB008B328A338934AB35AA36A9371205EE60B5
:10050B0063AB32AA33A9341205EE605F85353885AB
:10051B00363985373A8B3B8A3C893DAB38AA39A9AA
:10052B003A1205EEFF6023AB3BAA3CA93D1205EE48
:10053B006F701704253AF53AE43539F5397401250E
:10054B003DF53DE4353CF53C80D1AB38AA39A93AB1
:10055B001205EE7002800D74012534F534E4353349
:10056B00F533809DAB32AA33A934227B007A007914
:02057B0000225C
:00000001FF
